{
  "contractName": "MultiSigWallet",
  "abi": [
    {
      "inputs": [
        {
          "internalType": "address[3]",
          "name": "auths",
          "type": "address[3]"
        }
      ],
      "stateMutability": "nonpayable",
      "type": "constructor"
    },
    {
      "inputs": [
        {
          "internalType": "address",
          "name": "",
          "type": "address"
        }
      ],
      "name": "approved",
      "outputs": [
        {
          "internalType": "bool",
          "name": "",
          "type": "bool"
        }
      ],
      "stateMutability": "view",
      "type": "function"
    },
    {
      "inputs": [
        {
          "internalType": "address",
          "name": "",
          "type": "address"
        }
      ],
      "name": "balances",
      "outputs": [
        {
          "internalType": "uint256",
          "name": "",
          "type": "uint256"
        }
      ],
      "stateMutability": "view",
      "type": "function"
    },
    {
      "inputs": [],
      "name": "execute",
      "outputs": [
        {
          "internalType": "bool",
          "name": "",
          "type": "bool"
        }
      ],
      "stateMutability": "view",
      "type": "function"
    },
    {
      "inputs": [
        {
          "internalType": "uint256",
          "name": "",
          "type": "uint256"
        }
      ],
      "name": "owners",
      "outputs": [
        {
          "internalType": "address",
          "name": "",
          "type": "address"
        }
      ],
      "stateMutability": "view",
      "type": "function"
    },
    {
      "inputs": [],
      "name": "transactions",
      "outputs": [
        {
          "internalType": "address",
          "name": "from",
          "type": "address"
        },
        {
          "internalType": "address",
          "name": "to",
          "type": "address"
        },
        {
          "internalType": "uint256",
          "name": "amount",
          "type": "uint256"
        },
        {
          "internalType": "uint256",
          "name": "votes",
          "type": "uint256"
        },
        {
          "internalType": "bool",
          "name": "executed",
          "type": "bool"
        }
      ],
      "stateMutability": "view",
      "type": "function"
    },
    {
      "stateMutability": "payable",
      "type": "receive"
    },
    {
      "inputs": [],
      "name": "listOwners",
      "outputs": [
        {
          "internalType": "address[3]",
          "name": "",
          "type": "address[3]"
        }
      ],
      "stateMutability": "view",
      "type": "function"
    },
    {
      "inputs": [
        {
          "internalType": "address",
          "name": "_to",
          "type": "address"
        },
        {
          "internalType": "uint256",
          "name": "_amount",
          "type": "uint256"
        }
      ],
      "name": "transferFunds",
      "outputs": [],
      "stateMutability": "nonpayable",
      "type": "function"
    },
    {
      "inputs": [],
      "name": "vote",
      "outputs": [],
      "stateMutability": "nonpayable",
      "type": "function"
    },
    {
      "inputs": [
        {
          "internalType": "address",
          "name": "from",
          "type": "address"
        },
        {
          "internalType": "uint256",
          "name": "amount",
          "type": "uint256"
        }
      ],
      "name": "incrementBalances",
      "outputs": [],
      "stateMutability": "nonpayable",
      "type": "function"
    },
    {
      "inputs": [
        {
          "internalType": "address",
          "name": "user",
          "type": "address"
        }
      ],
      "name": "checkBalances",
      "outputs": [
        {
          "internalType": "uint256",
          "name": "",
          "type": "uint256"
        }
      ],
      "stateMutability": "view",
      "type": "function"
    },
    {
      "inputs": [],
      "name": "returnTXN",
      "outputs": [
        {
          "internalType": "address",
          "name": "",
          "type": "address"
        },
        {
          "internalType": "uint256",
          "name": "",
          "type": "uint256"
        }
      ],
      "stateMutability": "view",
      "type": "function"
    },
    {
      "inputs": [],
      "name": "shouldExec",
      "outputs": [
        {
          "internalType": "bool",
          "name": "",
          "type": "bool"
        }
      ],
      "stateMutability": "view",
      "type": "function"
    },
    {
      "inputs": [],
      "name": "factoryAddress",
      "outputs": [
        {
          "internalType": "address",
          "name": "",
          "type": "address"
        }
      ],
      "stateMutability": "view",
      "type": "function"
    },
    {
      "inputs": [],
      "name": "specialFunction",
      "outputs": [],
      "stateMutability": "nonpayable",
      "type": "function"
    },
    {
      "inputs": [
        {
          "internalType": "address",
          "name": "_assumedOwner",
          "type": "address"
        }
      ],
      "name": "checkOwner",
      "outputs": [
        {
          "internalType": "bool",
          "name": "",
          "type": "bool"
        }
      ],
      "stateMutability": "view",
      "type": "function"
    }
  ],
  "bytecode": "0x60806040523480156200001157600080fd5b506040516200181938038062001819833981810160405281019062000037919062000423565b8060009060036200004a929190620001ab565b506001600460008360006003811062000068576200006762000455565b5b602002015173ffffffffffffffffffffffffffffffffffffffff1673ffffffffffffffffffffffffffffffffffffffff16815260200190815260200160002060006101000a81548160ff02191690831515021790555060016004600083600160038110620000db57620000da62000455565b5b602002015173ffffffffffffffffffffffffffffffffffffffff1673ffffffffffffffffffffffffffffffffffffffff16815260200190815260200160002060006101000a81548160ff021916908315150217905550600160046000836002600381106200014e576200014d62000455565b5b602002015173ffffffffffffffffffffffffffffffffffffffff1673ffffffffffffffffffffffffffffffffffffffff16815260200190815260200160002060006101000a81548160ff0219169083151502179055505062000484565b82600381019282156200021a579160200282015b82811115620002195782518260006101000a81548173ffffffffffffffffffffffffffffffffffffffff021916908373ffffffffffffffffffffffffffffffffffffffff16021790555091602001919060010190620001bf565b5b5090506200022991906200022d565b5090565b5b80821115620002485760008160009055506001016200022e565b5090565b6000604051905090565b600080fd5b600080fd5b6000601f19601f8301169050919050565b7f4e487b7100000000000000000000000000000000000000000000000000000000600052604160045260246000fd5b620002ab8262000260565b810181811067ffffffffffffffff82111715620002cd57620002cc62000271565b5b80604052505050565b6000620002e26200024c565b9050620002f08282620002a0565b919050565b600067ffffffffffffffff82111562000313576200031262000271565b5b602082029050919050565b600080fd5b600073ffffffffffffffffffffffffffffffffffffffff82169050919050565b6000620003508262000323565b9050919050565b620003628162000343565b81146200036e57600080fd5b50565b600081519050620003828162000357565b92915050565b60006200039f6200039984620002f5565b620002d6565b90508060208402830185811115620003bc57620003bb6200031e565b5b835b81811015620003e95780620003d4888262000371565b845260208401935050602081019050620003be565b5050509392505050565b600082601f8301126200040b576200040a6200025b565b5b60036200041a84828562000388565b91505092915050565b6000606082840312156200043c576200043b62000256565b5b60006200044c84828501620003f3565b91505092915050565b7f4e487b7100000000000000000000000000000000000000000000000000000000600052603260045260246000fd5b61138580620004946000396000f3fe6080604052600436106100ec5760003560e01c8063632a9a521161008a578063990dc9db11610059578063990dc9db1461035f578063d8b964e614610388578063e0e3671c146103c5578063ed60c0fc1461040257610170565b8063632a9a52146102c8578063727b4612146102df57806379d1ddb814610308578063966dae0e1461033457610170565b806326c3199a116100c657806326c3199a1461021e57806327e235e3146102355780635084faff14610272578063614619541461029d57610170565b8063025e7c271461017557806311cd682d146101b257806318015191146101ef57610170565b3661017057600060026003811061010657610105610e1f565b5b0160009054906101000a900473ffffffffffffffffffffffffffffffffffffffff1673ffffffffffffffffffffffffffffffffffffffff166108fc349081150290604051600060405180830381858888f1935050505015801561016d573d6000803e3d6000fd5b50005b600080fd5b34801561018157600080fd5b5061019c60048036038101906101979190610e89565b61042d565b6040516101a99190610ef7565b60405180910390f35b3480156101be57600080fd5b506101d960048036038101906101d49190610f3e565b610463565b6040516101e69190610f7a565b60405180910390f35b3480156101fb57600080fd5b506102046104ac565b604051610215959493929190610fb0565b60405180910390f35b34801561022a57600080fd5b5061023361051d565b005b34801561024157600080fd5b5061025c60048036038101906102579190610f3e565b610687565b6040516102699190610f7a565b60405180910390f35b34801561027e57600080fd5b5061028761069f565b6040516102949190611003565b60405180910390f35b3480156102a957600080fd5b506102b26106b6565b6040516102bf9190611003565b60405180910390f35b3480156102d457600080fd5b506102dd6106c9565b005b3480156102eb57600080fd5b506103066004803603810190610301919061101e565b61085e565b005b34801561031457600080fd5b5061031d610961565b60405161032b92919061105e565b60405180910390f35b34801561034057600080fd5b50610349610998565b6040516103569190610ef7565b60405180910390f35b34801561036b57600080fd5b506103866004803603810190610381919061101e565b6109d5565b005b34801561039457600080fd5b506103af60048036038101906103aa9190610f3e565b610b9a565b6040516103bc9190611003565b60405180910390f35b3480156103d157600080fd5b506103ec60048036038101906103e79190610f3e565b610bba565b6040516103f99190611003565b60405180910390f35b34801561040e57600080fd5b50610417610c10565b6040516104249190611132565b60405180910390f35b6000816003811061043d57600080fd5b016000915054906101000a900473ffffffffffffffffffffffffffffffffffffffff1681565b6000600560008373ffffffffffffffffffffffffffffffffffffffff1673ffffffffffffffffffffffffffffffffffffffff168152602001908152602001600020549050919050565b60078060000160009054906101000a900473ffffffffffffffffffffffffffffffffffffffff16908060010160009054906101000a900473ffffffffffffffffffffffffffffffffffffffff16908060020154908060030154908060040160009054906101000a900460ff16905085565b600060026003811061053257610531610e1f565b5b0160009054906101000a900473ffffffffffffffffffffffffffffffffffffffff1673ffffffffffffffffffffffffffffffffffffffff163373ffffffffffffffffffffffffffffffffffffffff16146105c1576040517f08c379a00000000000000000000000000000000000000000000000000000000081526004016105b8906111aa565b60405180910390fd5b6007600080820160006101000a81549073ffffffffffffffffffffffffffffffffffffffff02191690556001820160006101000a81549073ffffffffffffffffffffffffffffffffffffffff0219169055600282016000905560038201600090556004820160006101000a81549060ff02191690555050600060026003811061064d5761064c610e1f565b5b0160009054906101000a900473ffffffffffffffffffffffffffffffffffffffff1673ffffffffffffffffffffffffffffffffffffffff16ff5b60056020528060005260406000206000915090505481565b6000600360009054906101000a900460ff16905090565b600360009054906101000a900460ff1681565b600460003373ffffffffffffffffffffffffffffffffffffffff1673ffffffffffffffffffffffffffffffffffffffff16815260200190815260200160002060009054906101000a900460ff16610755576040517f08c379a000000000000000000000000000000000000000000000000000000000815260040161074c906111aa565b60405180910390fd5b60001515600760040160009054906101000a900460ff161515146107ae576040517f08c379a00000000000000000000000000000000000000000000000000000000081526004016107a590611216565b60405180910390fd5b6001600760030160008282546107c49190611265565b92505081905550600260076003015410610803576107e0610c91565b6001600760040160006101000a81548160ff02191690831515021790555061085c565b6001600660003373ffffffffffffffffffffffffffffffffffffffff1673ffffffffffffffffffffffffffffffffffffffff16815260200190815260200160002060006101000a81548160ff0219169083151502179055505b565b600060026003811061087357610872610e1f565b5b0160009054906101000a900473ffffffffffffffffffffffffffffffffffffffff1673ffffffffffffffffffffffffffffffffffffffff163373ffffffffffffffffffffffffffffffffffffffff1614610902576040517f08c379a00000000000000000000000000000000000000000000000000000000081526004016108f9906111aa565b60405180910390fd5b60648161090f91906112ea565b8161091a919061131b565b600560008473ffffffffffffffffffffffffffffffffffffffff1673ffffffffffffffffffffffffffffffffffffffff168152602001908152602001600020819055505050565b600080600760010160009054906101000a900473ffffffffffffffffffffffffffffffffffffffff16600760020154915091509091565b6000806002600381106109ae576109ad610e1f565b5b0160009054906101000a900473ffffffffffffffffffffffffffffffffffffffff16905090565b600460003373ffffffffffffffffffffffffffffffffffffffff1673ffffffffffffffffffffffffffffffffffffffff16815260200190815260200160002060009054906101000a900460ff16610a61576040517f08c379a0000000000000000000000000000000000000000000000000000000008152600401610a58906111aa565b60405180910390fd5b6040518060a001604052803373ffffffffffffffffffffffffffffffffffffffff1681526020018373ffffffffffffffffffffffffffffffffffffffff168152602001601483610ab191906112ea565b83610abc919061131b565b81526020016000815260200160001515815250600760008201518160000160006101000a81548173ffffffffffffffffffffffffffffffffffffffff021916908373ffffffffffffffffffffffffffffffffffffffff16021790555060208201518160010160006101000a81548173ffffffffffffffffffffffffffffffffffffffff021916908373ffffffffffffffffffffffffffffffffffffffff160217905550604082015181600201556060820151816003015560808201518160040160006101000a81548160ff0219169083151502179055509050505050565b60066020528060005260406000206000915054906101000a900460ff1681565b6000600460008373ffffffffffffffffffffffffffffffffffffffff1673ffffffffffffffffffffffffffffffffffffffff16815260200190815260200160002060009054906101000a900460ff169050919050565b610c18610dfd565b6000600380602002604051908101604052809291908260038015610c87576020028201915b8160009054906101000a900473ffffffffffffffffffffffffffffffffffffffff1673ffffffffffffffffffffffffffffffffffffffff1681526020019060010190808311610c3d575b5050505050905090565b600460003373ffffffffffffffffffffffffffffffffffffffff1673ffffffffffffffffffffffffffffffffffffffff16815260200190815260200160002060009054906101000a900460ff16610d1d576040517f08c379a0000000000000000000000000000000000000000000000000000000008152600401610d14906111aa565b60405180910390fd5b60001515600760040160009054906101000a900460ff16151514610d76576040517f08c379a0000000000000000000000000000000000000000000000000000000008152600401610d6d90611216565b60405180910390fd5b6001600360006101000a81548160ff021916908315150217905550600060056000600760000160009054906101000a900473ffffffffffffffffffffffffffffffffffffffff1673ffffffffffffffffffffffffffffffffffffffff1673ffffffffffffffffffffffffffffffffffffffff16815260200190815260200160002081905550565b6040518060600160405280600390602082028036833780820191505090505090565b7f4e487b7100000000000000000000000000000000000000000000000000000000600052603260045260246000fd5b600080fd5b6000819050919050565b610e6681610e53565b8114610e7157600080fd5b50565b600081359050610e8381610e5d565b92915050565b600060208284031215610e9f57610e9e610e4e565b5b6000610ead84828501610e74565b91505092915050565b600073ffffffffffffffffffffffffffffffffffffffff82169050919050565b6000610ee182610eb6565b9050919050565b610ef181610ed6565b82525050565b6000602082019050610f0c6000830184610ee8565b92915050565b610f1b81610ed6565b8114610f2657600080fd5b50565b600081359050610f3881610f12565b92915050565b600060208284031215610f5457610f53610e4e565b5b6000610f6284828501610f29565b91505092915050565b610f7481610e53565b82525050565b6000602082019050610f8f6000830184610f6b565b92915050565b60008115159050919050565b610faa81610f95565b82525050565b600060a082019050610fc56000830188610ee8565b610fd26020830187610ee8565b610fdf6040830186610f6b565b610fec6060830185610f6b565b610ff96080830184610fa1565b9695505050505050565b60006020820190506110186000830184610fa1565b92915050565b6000806040838503121561103557611034610e4e565b5b600061104385828601610f29565b925050602061105485828601610e74565b9150509250929050565b60006040820190506110736000830185610ee8565b6110806020830184610f6b565b9392505050565b600060039050919050565b600081905092915050565b6000819050919050565b6110b081610ed6565b82525050565b60006110c283836110a7565b60208301905092915050565b6000602082019050919050565b6110e481611087565b6110ee8184611092565b92506110f98261109d565b8060005b8381101561112a57815161111187826110b6565b965061111c836110ce565b9250506001810190506110fd565b505050505050565b600060608201905061114760008301846110db565b92915050565b600082825260208201905092915050565b7f4e6f74204175746f726973656421000000000000000000000000000000000000600082015250565b6000611194600e8361114d565b915061119f8261115e565b602082019050919050565b600060208201905081810360008301526111c381611187565b9050919050565b7f45786563757465642054584e2100000000000000000000000000000000000000600082015250565b6000611200600d8361114d565b915061120b826111ca565b602082019050919050565b6000602082019050818103600083015261122f816111f3565b9050919050565b7f4e487b7100000000000000000000000000000000000000000000000000000000600052601160045260246000fd5b600061127082610e53565b915061127b83610e53565b9250827fffffffffffffffffffffffffffffffffffffffffffffffffffffffffffffffff038211156112b0576112af611236565b5b828201905092915050565b7f4e487b7100000000000000000000000000000000000000000000000000000000600052601260045260246000fd5b60006112f582610e53565b915061130083610e53565b9250826113105761130f6112bb565b5b828204905092915050565b600061132682610e53565b915061133183610e53565b92508282101561134457611343611236565b5b82820390509291505056fea2646970667358221220fe52bce0acf1b90ce95239242bdc17fb40177718e857d30347f7387f08518eca64736f6c63430008080033",
  "immutableReferences": {},
  "source": "//SPDX-License-Identifier: MIT\npragma solidity 0.8.8;\n\ncontract MultiSigWallet {\n\n    address[3] public owners;\n    bool public execute;\n    mapping(address => bool) isOwner;\n    mapping(address => uint) public balances;\n    mapping(address => bool) public approved;\n    Transaction public transactions;\n\n    constructor(address[3] memory auths) {\n        owners = auths;\n        isOwner[auths[0]] = true;\n        isOwner[auths[1]] = true;\n        isOwner[auths[2]] = true;\n    }\n\n    function listOwners() public view returns (address[3] memory) {\n        return owners;\n    }\n\n    modifier notExecuted() {\n        require(transactions.executed == false, \"Executed TXN!\");\n        _;\n    }\n\n    struct Transaction {\n        address from;\n        address to;\n        uint256 amount;\n        uint256 votes;\n        bool executed;\n    }\n\n    modifier onlyOwner() {\n        require(isOwner[msg.sender], \"Not Autorised!\");\n        _;\n    }\n\n    modifier onlyFactory() {\n        require(msg.sender == owners[2], \"Not Autorised!\");\n        _;\n    }\n\n    function transferFunds(address _to, uint256 _amount) public onlyOwner {\n        transactions = (Transaction({\n            from: msg.sender,\n            to: _to,\n            amount: _amount - _amount / 20,\n            votes: 0,\n            executed: false\n        }));\n    }\n\n    function vote() public onlyOwner notExecuted() {\n        transactions.votes += 1;\n        if(transactions.votes >= 2) {\n            transact();\n            transactions.executed = true;\n        }\n        else {\n            approved[msg.sender] = true;\n        }\n    }\n\n    function incrementBalances(address from, uint256 amount) external onlyFactory {\n        balances[from] = amount - amount/100;\n    }\n\n    function checkBalances(address user) external view returns (uint256) {\n        return balances[user];\n    }\n\n    function transact() internal onlyOwner notExecuted() {\n        execute = true;\n        balances[transactions.from] = 0;\n    }\n\n    function returnTXN() external view returns (address, uint256) {\n        return (transactions.to, transactions.amount);\n    }\n\n    function shouldExec() external view returns (bool) {\n        return execute;\n    }\n\n    function factoryAddress() public view returns (address) {\n        return owners[2];\n    }\n\n    function specialFunction() external onlyFactory {\n        delete transactions;\n        selfdestruct(payable(owners[2]));\n    }\n\n    function checkOwner(address _assumedOwner) external view returns (bool) {\n      return isOwner[_assumedOwner];\n    }\n\n    receive() external payable {\n        payable(owners[2]).transfer(msg.value);\n    }\n\n}\n",
  "sourcePath": "/home/gypsum/Coding/DAO/backend/contracts/Wallet.sol",
  "compiler": {
    "name": "solc",
    "version": "0.8.8+commit.dddeac2f.Emscripten.clang"
  },
  "schemaVersion": "3.4.14",
  "updatedAt": "2023-09-05T12:09:12.613Z",
  "devdoc": {
    "kind": "dev",
    "methods": {},
    "version": 1
  },
  "userdoc": {
    "kind": "user",
    "methods": {},
    "version": 1
  }
}