{
  "contractName": "MultiSigFactory",
  "abi": [
    {
      "inputs": [],
      "stateMutability": "nonpayable",
      "type": "constructor"
    },
    {
      "anonymous": false,
      "inputs": [
        {
          "indexed": false,
          "internalType": "address",
          "name": "to",
          "type": "address"
        },
        {
          "indexed": false,
          "internalType": "uint256",
          "name": "amount",
          "type": "uint256"
        }
      ],
      "name": "Enroll",
      "type": "event"
    },
    {
      "inputs": [
        {
          "internalType": "uint256",
          "name": "",
          "type": "uint256"
        }
      ],
      "name": "bonds",
      "outputs": [
        {
          "internalType": "contract MultiSigWallet",
          "name": "",
          "type": "address"
        }
      ],
      "stateMutability": "view",
      "type": "function",
      "constant": true
    },
    {
      "inputs": [
        {
          "internalType": "address",
          "name": "to",
          "type": "address"
        }
      ],
      "name": "enroll",
      "outputs": [
        {
          "internalType": "address",
          "name": "",
          "type": "address"
        }
      ],
      "stateMutability": "payable",
      "type": "function",
      "payable": true
    },
    {
      "inputs": [
        {
          "internalType": "address payable",
          "name": "_mul",
          "type": "address"
        }
      ],
      "name": "approve",
      "outputs": [
        {
          "internalType": "bool",
          "name": "",
          "type": "bool"
        }
      ],
      "stateMutability": "nonpayable",
      "type": "function"
    },
    {
      "inputs": [
        {
          "internalType": "address",
          "name": "user",
          "type": "address"
        }
      ],
      "name": "myBond",
      "outputs": [
        {
          "internalType": "address",
          "name": "",
          "type": "address"
        }
      ],
      "stateMutability": "view",
      "type": "function",
      "constant": true
    },
    {
      "inputs": [
        {
          "internalType": "address payable",
          "name": "_mul",
          "type": "address"
        }
      ],
      "name": "authenticators",
      "outputs": [
        {
          "internalType": "address[3]",
          "name": "",
          "type": "address[3]"
        }
      ],
      "stateMutability": "view",
      "type": "function",
      "constant": true
    },
    {
      "inputs": [
        {
          "internalType": "address payable",
          "name": "_mul",
          "type": "address"
        },
        {
          "internalType": "address payable",
          "name": "_to",
          "type": "address"
        },
        {
          "internalType": "uint256",
          "name": "amount",
          "type": "uint256"
        }
      ],
      "name": "rescueTXN",
      "outputs": [],
      "stateMutability": "payable",
      "type": "function",
      "payable": true
    },
    {
      "inputs": [
        {
          "internalType": "address",
          "name": "user",
          "type": "address"
        }
      ],
      "name": "myBalance",
      "outputs": [
        {
          "internalType": "uint256",
          "name": "",
          "type": "uint256"
        }
      ],
      "stateMutability": "view",
      "type": "function",
      "constant": true
    }
  ],
  "bytecode": "0x608060405234801561001057600080fd5b50336000806101000a81548173ffffffffffffffffffffffffffffffffffffffff021916908373ffffffffffffffffffffffffffffffffffffffff160217905550612d27806100606000396000f3fe6080604052600436106200007a5760003560e01c8063791eb8541162000055578063791eb8541462000127578063817a5e14146200016b578063ba83d1a014620001af578063daea85c514620001e5576200007a565b80632a107d12146200007f57806353034e48146200009f5780635f1c17c014620000e3575b600080fd5b6200009d600480360381019062000097919062000d06565b62000229565b005b348015620000ac57600080fd5b50620000cb6004803603810190620000c5919062000da7565b6200036f565b604051620000da919062000dea565b60405180910390f35b348015620000f057600080fd5b506200010f600480360381019062000109919062000e07565b620003d8565b6040516200011e919062000ea4565b60405180910390f35b3480156200013457600080fd5b506200015360048036038101906200014d919062000ec1565b62000418565b60405162000162919062000fae565b60405180910390f35b3480156200017857600080fd5b5062000197600480360381019062000191919062000da7565b620004b1565b604051620001a6919062000fdc565b60405180910390f35b620001cd6004803603810190620001c7919062000da7565b62000558565b604051620001dc919062000dea565b60405180910390f35b348015620001f257600080fd5b506200021160048036038101906200020b919062000ec1565b6200088d565b60405162000220919062001016565b60405180910390f35b60008054906101000a900473ffffffffffffffffffffffffffffffffffffffff1673ffffffffffffffffffffffffffffffffffffffff163373ffffffffffffffffffffffffffffffffffffffff1614620002ba576040517f08c379a0000000000000000000000000000000000000000000000000000000008152600401620002b19062001094565b60405180910390fd5b8173ffffffffffffffffffffffffffffffffffffffff166108fc829081150290604051600060405180830381858888f1935050505015801562000301573d6000803e3d6000fd5b5060008390508073ffffffffffffffffffffffffffffffffffffffff166326c3199a6040518163ffffffff1660e01b8152600401600060405180830381600087803b1580156200035057600080fd5b505af115801562000365573d6000803e3d6000fd5b5050505050505050565b6000600360008373ffffffffffffffffffffffffffffffffffffffff1673ffffffffffffffffffffffffffffffffffffffff16815260200190815260200160002060009054906101000a900473ffffffffffffffffffffffffffffffffffffffff169050919050565b60028181548110620003e957600080fd5b906000526020600020016000915054906101000a900473ffffffffffffffffffffffffffffffffffffffff1681565b6200042262000c27565b60008290508073ffffffffffffffffffffffffffffffffffffffff1663ed60c0fc6040518163ffffffff1660e01b815260040160606040518083038186803b1580156200046e57600080fd5b505afa15801562000483573d6000803e3d6000fd5b505050506040513d601f19601f82011682018060405250810190620004a9919062001230565b915050919050565b600080620004bf836200036f565b90508073ffffffffffffffffffffffffffffffffffffffff166311cd682d846040518263ffffffff1660e01b8152600401620004fc919062000dea565b60206040518083038186803b1580156200051557600080fd5b505afa1580156200052a573d6000803e3d6000fd5b505050506040513d601f19601f8201168201806040525081019062000550919062001279565b915050919050565b600064174876e800341015620005a5576040517f08c379a00000000000000000000000000000000000000000000000000000000081526004016200059c90620012fb565b60405180910390fd5b600060405180606001604052803373ffffffffffffffffffffffffffffffffffffffff1673ffffffffffffffffffffffffffffffffffffffff1681526020018473ffffffffffffffffffffffffffffffffffffffff1673ffffffffffffffffffffffffffffffffffffffff1681526020013073ffffffffffffffffffffffffffffffffffffffff1673ffffffffffffffffffffffffffffffffffffffff16815250604051620006549062000c49565b62000660919062000fae565b604051809103906000f0801580156200067d573d6000803e3d6000fd5b50905060008190508173ffffffffffffffffffffffffffffffffffffffff1663727b461233346040518363ffffffff1660e01b8152600401620006c29291906200131d565b600060405180830381600087803b158015620006dd57600080fd5b505af1158015620006f2573d6000803e3d6000fd5b505050508173ffffffffffffffffffffffffffffffffffffffff1663990dc9db85346040518363ffffffff1660e01b8152600401620007339291906200131d565b600060405180830381600087803b1580156200074e57600080fd5b505af115801562000763573d6000803e3d6000fd5b5050505080600360003373ffffffffffffffffffffffffffffffffffffffff1673ffffffffffffffffffffffffffffffffffffffff16815260200190815260200160002060006101000a81548173ffffffffffffffffffffffffffffffffffffffff021916908373ffffffffffffffffffffffffffffffffffffffff1602179055506002829080600181540180825580915050600190039060005260206000200160009091909190916101000a81548173ffffffffffffffffffffffffffffffffffffffff021916908373ffffffffffffffffffffffffffffffffffffffff1602179055507f6f3062ac5495b9a6e84774debcd1ac809a40b37902bbe14fa67e12f983e0a83d84346040516200087b9291906200131d565b60405180910390a18192505050919050565b60008160008190508073ffffffffffffffffffffffffffffffffffffffff1663e0e3671c336040518263ffffffff1660e01b8152600401620008d0919062000dea565b60206040518083038186803b158015620008e957600080fd5b505afa158015620008fe573d6000803e3d6000fd5b505050506040513d601f19601f820116820180604052508101906200092491906200137b565b62000966576040517f08c379a00000000000000000000000000000000000000000000000000000000081526004016200095d90620013fd565b60405180910390fd5b600160003373ffffffffffffffffffffffffffffffffffffffff1673ffffffffffffffffffffffffffffffffffffffff16815260200190815260200160002060009054906101000a900460ff1615620009f6576040517f08c379a0000000000000000000000000000000000000000000000000000000008152600401620009ed906200146f565b60405180910390fd5b60008490508073ffffffffffffffffffffffffffffffffffffffff1663632a9a526040518163ffffffff1660e01b8152600401600060405180830381600087803b15801562000a4457600080fd5b505af115801562000a59573d6000803e3d6000fd5b5050505060018060003373ffffffffffffffffffffffffffffffffffffffff1673ffffffffffffffffffffffffffffffffffffffff16815260200190815260200160002060006101000a81548160ff02191690831515021790555060008173ffffffffffffffffffffffffffffffffffffffff16635084faff6040518163ffffffff1660e01b815260040160206040518083038186803b15801562000afd57600080fd5b505afa15801562000b12573d6000803e3d6000fd5b505050506040513d601f19601f8201168201806040525081019062000b3891906200137b565b905060011515811515141562000c1b576000808373ffffffffffffffffffffffffffffffffffffffff166379d1ddb86040518163ffffffff1660e01b8152600401604080518083038186803b15801562000b9157600080fd5b505afa15801562000ba6573d6000803e3d6000fd5b505050506040513d601f19601f8201168201806040525081019062000bcc919062001491565b915091508173ffffffffffffffffffffffffffffffffffffffff166108fc829081150290604051600060405180830381858888f1935050505015801562000c17573d6000803e3d6000fd5b5050505b80945050505050919050565b6040518060600160405280600390602082028036833780820191505090505090565b61181980620014d983390190565b6000604051905090565b600080fd5b600073ffffffffffffffffffffffffffffffffffffffff82169050919050565b600062000c938262000c66565b9050919050565b62000ca58162000c86565b811462000cb157600080fd5b50565b60008135905062000cc58162000c9a565b92915050565b6000819050919050565b62000ce08162000ccb565b811462000cec57600080fd5b50565b60008135905062000d008162000cd5565b92915050565b60008060006060848603121562000d225762000d2162000c61565b5b600062000d328682870162000cb4565b935050602062000d458682870162000cb4565b925050604062000d588682870162000cef565b9150509250925092565b600062000d6f8262000c66565b9050919050565b62000d818162000d62565b811462000d8d57600080fd5b50565b60008135905062000da18162000d76565b92915050565b60006020828403121562000dc05762000dbf62000c61565b5b600062000dd08482850162000d90565b91505092915050565b62000de48162000d62565b82525050565b600060208201905062000e01600083018462000dd9565b92915050565b60006020828403121562000e205762000e1f62000c61565b5b600062000e308482850162000cef565b91505092915050565b6000819050919050565b600062000e6462000e5e62000e588462000c66565b62000e39565b62000c66565b9050919050565b600062000e788262000e43565b9050919050565b600062000e8c8262000e6b565b9050919050565b62000e9e8162000e7f565b82525050565b600060208201905062000ebb600083018462000e93565b92915050565b60006020828403121562000eda5762000ed962000c61565b5b600062000eea8482850162000cb4565b91505092915050565b600060039050919050565b600081905092915050565b6000819050919050565b62000f1e8162000d62565b82525050565b600062000f32838362000f13565b60208301905092915050565b6000602082019050919050565b62000f568162000ef3565b62000f62818462000efe565b925062000f6f8262000f09565b8060005b8381101562000fa657815162000f8a878262000f24565b965062000f978362000f3e565b92505060018101905062000f73565b505050505050565b600060608201905062000fc5600083018462000f4b565b92915050565b62000fd68162000ccb565b82525050565b600060208201905062000ff3600083018462000fcb565b92915050565b60008115159050919050565b620010108162000ff9565b82525050565b60006020820190506200102d600083018462001005565b92915050565b600082825260208201905092915050565b7f556e617574686f72697a65642061636365737321000000000000000000000000600082015250565b60006200107c60148362001033565b9150620010898262001044565b602082019050919050565b60006020820190508181036000830152620010af816200106d565b9050919050565b600080fd5b6000601f19601f8301169050919050565b7f4e487b7100000000000000000000000000000000000000000000000000000000600052604160045260246000fd5b6200110682620010bb565b810181811067ffffffffffffffff82111715620011285762001127620010cc565b5b80604052505050565b60006200113d62000c57565b90506200114b8282620010fb565b919050565b600067ffffffffffffffff8211156200116e576200116d620010cc565b5b602082029050919050565b600080fd5b6000815190506200118f8162000d76565b92915050565b6000620011ac620011a68462001150565b62001131565b90508060208402830185811115620011c957620011c862001179565b5b835b81811015620011f65780620011e188826200117e565b845260208401935050602081019050620011cb565b5050509392505050565b600082601f830112620012185762001217620010b6565b5b60036200122784828562001195565b91505092915050565b60006060828403121562001249576200124862000c61565b5b6000620012598482850162001200565b91505092915050565b600081519050620012738162000cd5565b92915050565b60006020828403121562001292576200129162000c61565b5b6000620012a28482850162001262565b91505092915050565b7f506c656173652073656e642066756e6473210000000000000000000000000000600082015250565b6000620012e360128362001033565b9150620012f082620012ab565b602082019050919050565b600060208201905081810360008301526200131681620012d4565b9050919050565b600060408201905062001334600083018562000dd9565b62001343602083018462000fcb565b9392505050565b620013558162000ff9565b81146200136157600080fd5b50565b60008151905062001375816200134a565b92915050565b60006020828403121562001394576200139362000c61565b5b6000620013a48482850162001364565b91505092915050565b7f556e61757468656e746963617465642100000000000000000000000000000000600082015250565b6000620013e560108362001033565b9150620013f282620013ad565b602082019050919050565b600060208201905081810360008301526200141881620013d6565b9050919050565b7f416c726561647920417070726f76656421000000000000000000000000000000600082015250565b60006200145760118362001033565b915062001464826200141f565b602082019050919050565b600060208201905081810360008301526200148a8162001448565b9050919050565b60008060408385031215620014ab57620014aa62000c61565b5b6000620014bb858286016200117e565b9250506020620014ce8582860162001262565b915050925092905056fe60806040523480156200001157600080fd5b506040516200181938038062001819833981810160405281019062000037919062000423565b8060009060036200004a929190620001ab565b506001600460008360006003811062000068576200006762000455565b5b602002015173ffffffffffffffffffffffffffffffffffffffff1673ffffffffffffffffffffffffffffffffffffffff16815260200190815260200160002060006101000a81548160ff02191690831515021790555060016004600083600160038110620000db57620000da62000455565b5b602002015173ffffffffffffffffffffffffffffffffffffffff1673ffffffffffffffffffffffffffffffffffffffff16815260200190815260200160002060006101000a81548160ff021916908315150217905550600160046000836002600381106200014e576200014d62000455565b5b602002015173ffffffffffffffffffffffffffffffffffffffff1673ffffffffffffffffffffffffffffffffffffffff16815260200190815260200160002060006101000a81548160ff0219169083151502179055505062000484565b82600381019282156200021a579160200282015b82811115620002195782518260006101000a81548173ffffffffffffffffffffffffffffffffffffffff021916908373ffffffffffffffffffffffffffffffffffffffff16021790555091602001919060010190620001bf565b5b5090506200022991906200022d565b5090565b5b80821115620002485760008160009055506001016200022e565b5090565b6000604051905090565b600080fd5b600080fd5b6000601f19601f8301169050919050565b7f4e487b7100000000000000000000000000000000000000000000000000000000600052604160045260246000fd5b620002ab8262000260565b810181811067ffffffffffffffff82111715620002cd57620002cc62000271565b5b80604052505050565b6000620002e26200024c565b9050620002f08282620002a0565b919050565b600067ffffffffffffffff82111562000313576200031262000271565b5b602082029050919050565b600080fd5b600073ffffffffffffffffffffffffffffffffffffffff82169050919050565b6000620003508262000323565b9050919050565b620003628162000343565b81146200036e57600080fd5b50565b600081519050620003828162000357565b92915050565b60006200039f6200039984620002f5565b620002d6565b90508060208402830185811115620003bc57620003bb6200031e565b5b835b81811015620003e95780620003d4888262000371565b845260208401935050602081019050620003be565b5050509392505050565b600082601f8301126200040b576200040a6200025b565b5b60036200041a84828562000388565b91505092915050565b6000606082840312156200043c576200043b62000256565b5b60006200044c84828501620003f3565b91505092915050565b7f4e487b7100000000000000000000000000000000000000000000000000000000600052603260045260246000fd5b61138580620004946000396000f3fe6080604052600436106100ec5760003560e01c8063632a9a521161008a578063990dc9db11610059578063990dc9db1461035f578063d8b964e614610388578063e0e3671c146103c5578063ed60c0fc1461040257610170565b8063632a9a52146102c8578063727b4612146102df57806379d1ddb814610308578063966dae0e1461033457610170565b806326c3199a116100c657806326c3199a1461021e57806327e235e3146102355780635084faff14610272578063614619541461029d57610170565b8063025e7c271461017557806311cd682d146101b257806318015191146101ef57610170565b3661017057600060026003811061010657610105610e1f565b5b0160009054906101000a900473ffffffffffffffffffffffffffffffffffffffff1673ffffffffffffffffffffffffffffffffffffffff166108fc349081150290604051600060405180830381858888f1935050505015801561016d573d6000803e3d6000fd5b50005b600080fd5b34801561018157600080fd5b5061019c60048036038101906101979190610e89565b61042d565b6040516101a99190610ef7565b60405180910390f35b3480156101be57600080fd5b506101d960048036038101906101d49190610f3e565b610463565b6040516101e69190610f7a565b60405180910390f35b3480156101fb57600080fd5b506102046104ac565b604051610215959493929190610fb0565b60405180910390f35b34801561022a57600080fd5b5061023361051d565b005b34801561024157600080fd5b5061025c60048036038101906102579190610f3e565b610687565b6040516102699190610f7a565b60405180910390f35b34801561027e57600080fd5b5061028761069f565b6040516102949190611003565b60405180910390f35b3480156102a957600080fd5b506102b26106b6565b6040516102bf9190611003565b60405180910390f35b3480156102d457600080fd5b506102dd6106c9565b005b3480156102eb57600080fd5b506103066004803603810190610301919061101e565b61085e565b005b34801561031457600080fd5b5061031d610961565b60405161032b92919061105e565b60405180910390f35b34801561034057600080fd5b50610349610998565b6040516103569190610ef7565b60405180910390f35b34801561036b57600080fd5b506103866004803603810190610381919061101e565b6109d5565b005b34801561039457600080fd5b506103af60048036038101906103aa9190610f3e565b610b9a565b6040516103bc9190611003565b60405180910390f35b3480156103d157600080fd5b506103ec60048036038101906103e79190610f3e565b610bba565b6040516103f99190611003565b60405180910390f35b34801561040e57600080fd5b50610417610c10565b6040516104249190611132565b60405180910390f35b6000816003811061043d57600080fd5b016000915054906101000a900473ffffffffffffffffffffffffffffffffffffffff1681565b6000600560008373ffffffffffffffffffffffffffffffffffffffff1673ffffffffffffffffffffffffffffffffffffffff168152602001908152602001600020549050919050565b60078060000160009054906101000a900473ffffffffffffffffffffffffffffffffffffffff16908060010160009054906101000a900473ffffffffffffffffffffffffffffffffffffffff16908060020154908060030154908060040160009054906101000a900460ff16905085565b600060026003811061053257610531610e1f565b5b0160009054906101000a900473ffffffffffffffffffffffffffffffffffffffff1673ffffffffffffffffffffffffffffffffffffffff163373ffffffffffffffffffffffffffffffffffffffff16146105c1576040517f08c379a00000000000000000000000000000000000000000000000000000000081526004016105b8906111aa565b60405180910390fd5b6007600080820160006101000a81549073ffffffffffffffffffffffffffffffffffffffff02191690556001820160006101000a81549073ffffffffffffffffffffffffffffffffffffffff0219169055600282016000905560038201600090556004820160006101000a81549060ff02191690555050600060026003811061064d5761064c610e1f565b5b0160009054906101000a900473ffffffffffffffffffffffffffffffffffffffff1673ffffffffffffffffffffffffffffffffffffffff16ff5b60056020528060005260406000206000915090505481565b6000600360009054906101000a900460ff16905090565b600360009054906101000a900460ff1681565b600460003373ffffffffffffffffffffffffffffffffffffffff1673ffffffffffffffffffffffffffffffffffffffff16815260200190815260200160002060009054906101000a900460ff16610755576040517f08c379a000000000000000000000000000000000000000000000000000000000815260040161074c906111aa565b60405180910390fd5b60001515600760040160009054906101000a900460ff161515146107ae576040517f08c379a00000000000000000000000000000000000000000000000000000000081526004016107a590611216565b60405180910390fd5b6001600760030160008282546107c49190611265565b92505081905550600260076003015410610803576107e0610c91565b6001600760040160006101000a81548160ff02191690831515021790555061085c565b6001600660003373ffffffffffffffffffffffffffffffffffffffff1673ffffffffffffffffffffffffffffffffffffffff16815260200190815260200160002060006101000a81548160ff0219169083151502179055505b565b600060026003811061087357610872610e1f565b5b0160009054906101000a900473ffffffffffffffffffffffffffffffffffffffff1673ffffffffffffffffffffffffffffffffffffffff163373ffffffffffffffffffffffffffffffffffffffff1614610902576040517f08c379a00000000000000000000000000000000000000000000000000000000081526004016108f9906111aa565b60405180910390fd5b60648161090f91906112ea565b8161091a919061131b565b600560008473ffffffffffffffffffffffffffffffffffffffff1673ffffffffffffffffffffffffffffffffffffffff168152602001908152602001600020819055505050565b600080600760010160009054906101000a900473ffffffffffffffffffffffffffffffffffffffff16600760020154915091509091565b6000806002600381106109ae576109ad610e1f565b5b0160009054906101000a900473ffffffffffffffffffffffffffffffffffffffff16905090565b600460003373ffffffffffffffffffffffffffffffffffffffff1673ffffffffffffffffffffffffffffffffffffffff16815260200190815260200160002060009054906101000a900460ff16610a61576040517f08c379a0000000000000000000000000000000000000000000000000000000008152600401610a58906111aa565b60405180910390fd5b6040518060a001604052803373ffffffffffffffffffffffffffffffffffffffff1681526020018373ffffffffffffffffffffffffffffffffffffffff168152602001601483610ab191906112ea565b83610abc919061131b565b81526020016000815260200160001515815250600760008201518160000160006101000a81548173ffffffffffffffffffffffffffffffffffffffff021916908373ffffffffffffffffffffffffffffffffffffffff16021790555060208201518160010160006101000a81548173ffffffffffffffffffffffffffffffffffffffff021916908373ffffffffffffffffffffffffffffffffffffffff160217905550604082015181600201556060820151816003015560808201518160040160006101000a81548160ff0219169083151502179055509050505050565b60066020528060005260406000206000915054906101000a900460ff1681565b6000600460008373ffffffffffffffffffffffffffffffffffffffff1673ffffffffffffffffffffffffffffffffffffffff16815260200190815260200160002060009054906101000a900460ff169050919050565b610c18610dfd565b6000600380602002604051908101604052809291908260038015610c87576020028201915b8160009054906101000a900473ffffffffffffffffffffffffffffffffffffffff1673ffffffffffffffffffffffffffffffffffffffff1681526020019060010190808311610c3d575b5050505050905090565b600460003373ffffffffffffffffffffffffffffffffffffffff1673ffffffffffffffffffffffffffffffffffffffff16815260200190815260200160002060009054906101000a900460ff16610d1d576040517f08c379a0000000000000000000000000000000000000000000000000000000008152600401610d14906111aa565b60405180910390fd5b60001515600760040160009054906101000a900460ff16151514610d76576040517f08c379a0000000000000000000000000000000000000000000000000000000008152600401610d6d90611216565b60405180910390fd5b6001600360006101000a81548160ff021916908315150217905550600060056000600760000160009054906101000a900473ffffffffffffffffffffffffffffffffffffffff1673ffffffffffffffffffffffffffffffffffffffff1673ffffffffffffffffffffffffffffffffffffffff16815260200190815260200160002081905550565b6040518060600160405280600390602082028036833780820191505090505090565b7f4e487b7100000000000000000000000000000000000000000000000000000000600052603260045260246000fd5b600080fd5b6000819050919050565b610e6681610e53565b8114610e7157600080fd5b50565b600081359050610e8381610e5d565b92915050565b600060208284031215610e9f57610e9e610e4e565b5b6000610ead84828501610e74565b91505092915050565b600073ffffffffffffffffffffffffffffffffffffffff82169050919050565b6000610ee182610eb6565b9050919050565b610ef181610ed6565b82525050565b6000602082019050610f0c6000830184610ee8565b92915050565b610f1b81610ed6565b8114610f2657600080fd5b50565b600081359050610f3881610f12565b92915050565b600060208284031215610f5457610f53610e4e565b5b6000610f6284828501610f29565b91505092915050565b610f7481610e53565b82525050565b6000602082019050610f8f6000830184610f6b565b92915050565b60008115159050919050565b610faa81610f95565b82525050565b600060a082019050610fc56000830188610ee8565b610fd26020830187610ee8565b610fdf6040830186610f6b565b610fec6060830185610f6b565b610ff96080830184610fa1565b9695505050505050565b60006020820190506110186000830184610fa1565b92915050565b6000806040838503121561103557611034610e4e565b5b600061104385828601610f29565b925050602061105485828601610e74565b9150509250929050565b60006040820190506110736000830185610ee8565b6110806020830184610f6b565b9392505050565b600060039050919050565b600081905092915050565b6000819050919050565b6110b081610ed6565b82525050565b60006110c283836110a7565b60208301905092915050565b6000602082019050919050565b6110e481611087565b6110ee8184611092565b92506110f98261109d565b8060005b8381101561112a57815161111187826110b6565b965061111c836110ce565b9250506001810190506110fd565b505050505050565b600060608201905061114760008301846110db565b92915050565b600082825260208201905092915050565b7f4e6f74204175746f726973656421000000000000000000000000000000000000600082015250565b6000611194600e8361114d565b915061119f8261115e565b602082019050919050565b600060208201905081810360008301526111c381611187565b9050919050565b7f45786563757465642054584e2100000000000000000000000000000000000000600082015250565b6000611200600d8361114d565b915061120b826111ca565b602082019050919050565b6000602082019050818103600083015261122f816111f3565b9050919050565b7f4e487b7100000000000000000000000000000000000000000000000000000000600052601160045260246000fd5b600061127082610e53565b915061127b83610e53565b9250827fffffffffffffffffffffffffffffffffffffffffffffffffffffffffffffffff038211156112b0576112af611236565b5b828201905092915050565b7f4e487b7100000000000000000000000000000000000000000000000000000000600052601260045260246000fd5b60006112f582610e53565b915061130083610e53565b9250826113105761130f6112bb565b5b828204905092915050565b600061132682610e53565b915061133183610e53565b92508282101561134457611343611236565b5b82820390509291505056fea2646970667358221220fe52bce0acf1b90ce95239242bdc17fb40177718e857d30347f7387f08518eca64736f6c63430008080033a2646970667358221220dbdcc2e113a828b0745e19744ca226ab4620f23df035a6ed8bc2b5a1dae3b1c164736f6c63430008080033",
  "immutableReferences": {},
  "source": "//SPDX-License-Identifier: MIT\npragma solidity ^0.8.3;\n\nimport \"./Wallet.sol\";\n\ncontract MultiSigFactory {\n\n    address superOwner;\n    mapping(address => bool) approved;\n    event Enroll(address to, uint256 amount);\n\n    constructor() {\n        superOwner = msg.sender;\n    }\n\n    modifier onlyOwner() {\n        require(msg.sender == superOwner, \"Unauthorized access!\");\n        _;\n    }\n\n    modifier notVoted() {\n        require(!approved[msg.sender], \"Already Approved!\");\n        _;\n    }\n\n    modifier authcated(address payable _mul) {\n      MultiSigWallet mul = MultiSigWallet(_mul);  \n      require(mul.checkOwner(msg.sender), \"Unauthenticated!\");\n      _;\n    }\n\n    MultiSigWallet[] public bonds;\n    mapping(address => address) bondOf;\n\n\n    function enroll(address to) public payable returns (address) {\n        require(msg.value >= 100 gwei, \"Please send funds!\");\n        MultiSigWallet mul = new MultiSigWallet([msg.sender, to, address(this)]);\n        address payable multiSigAddress = payable(address(mul));\n        mul.incrementBalances(msg.sender, msg.value);\n        //mul.balances(msg.sender) + msg.value;\n        mul.transferFunds(to, msg.value);\n        bondOf[msg.sender] = address(multiSigAddress);\n        bonds.push(mul);\n        emit Enroll(to, msg.value);\n        return address(mul);\n    }\n\n    function approve(address payable _mul) public authcated(_mul) notVoted() returns (bool) {\n        MultiSigWallet mul = MultiSigWallet(_mul);\n        mul.vote();\n        approved[msg.sender] = true;\n        bool execute = mul.shouldExec();\n        if(execute == true) {\n            (address to, uint256 amount) = mul.returnTXN();\n            payable(to).transfer(amount);\n        }\n        return execute;\n    }\n\n    function myBond(address user) public view returns (address) {\n        return bondOf[user];\n    }\n\n    function authenticators(address payable _mul) public view returns (address[3] memory) {\n        MultiSigWallet mul = MultiSigWallet(_mul);\n        return mul.listOwners();\n    }\n\n    function rescueTXN(address payable _mul, address payable _to, uint256 amount) onlyOwner public payable {\n        _to.transfer(amount);\n        MultiSigWallet mul = MultiSigWallet(_mul);\n        mul.specialFunction();\n    }\n\n    function myBalance(address user) public view returns (uint256) {\n        MultiSigWallet mul = MultiSigWallet(payable(myBond(user)));\n        return mul.checkBalances(user);\n    }\n\n}\n",
  "sourcePath": "/home/gypsum/Coding/DAO/backend/contracts/Factory.sol",
  "compiler": {
    "name": "solc",
    "version": "0.8.8+commit.dddeac2f.Emscripten.clang"
  },
  "schemaVersion": "3.4.14",
  "updatedAt": "2023-09-07T13:48:53.676Z",
  "networkType": "ethereum",
  "devdoc": {
    "kind": "dev",
    "methods": {},
    "version": 1
  },
  "userdoc": {
    "kind": "user",
    "methods": {},
    "version": 1
  }
}