{
  "contractName": "Nifty",
  "abi": [
    {
      "inputs": [],
      "stateMutability": "nonpayable",
      "type": "constructor"
    },
    {
      "anonymous": false,
      "inputs": [
        {
          "indexed": true,
          "internalType": "address",
          "name": "owner",
          "type": "address"
        },
        {
          "indexed": true,
          "internalType": "address",
          "name": "approved",
          "type": "address"
        },
        {
          "indexed": true,
          "internalType": "uint256",
          "name": "tokenId",
          "type": "uint256"
        }
      ],
      "name": "Approval",
      "type": "event"
    },
    {
      "anonymous": false,
      "inputs": [
        {
          "indexed": true,
          "internalType": "address",
          "name": "owner",
          "type": "address"
        },
        {
          "indexed": true,
          "internalType": "address",
          "name": "operator",
          "type": "address"
        },
        {
          "indexed": false,
          "internalType": "bool",
          "name": "approved",
          "type": "bool"
        }
      ],
      "name": "ApprovalForAll",
      "type": "event"
    },
    {
      "anonymous": false,
      "inputs": [
        {
          "indexed": true,
          "internalType": "address",
          "name": "from",
          "type": "address"
        },
        {
          "indexed": true,
          "internalType": "address",
          "name": "to",
          "type": "address"
        },
        {
          "indexed": true,
          "internalType": "uint256",
          "name": "tokenId",
          "type": "uint256"
        }
      ],
      "name": "Transfer",
      "type": "event"
    },
    {
      "inputs": [
        {
          "internalType": "address",
          "name": "to",
          "type": "address"
        },
        {
          "internalType": "uint256",
          "name": "tokenId",
          "type": "uint256"
        }
      ],
      "name": "approve",
      "outputs": [],
      "stateMutability": "nonpayable",
      "type": "function"
    },
    {
      "inputs": [
        {
          "internalType": "address",
          "name": "owner",
          "type": "address"
        }
      ],
      "name": "balanceOf",
      "outputs": [
        {
          "internalType": "uint256",
          "name": "",
          "type": "uint256"
        }
      ],
      "stateMutability": "view",
      "type": "function",
      "constant": true
    },
    {
      "inputs": [
        {
          "internalType": "uint256",
          "name": "tokenId",
          "type": "uint256"
        }
      ],
      "name": "getApproved",
      "outputs": [
        {
          "internalType": "address",
          "name": "",
          "type": "address"
        }
      ],
      "stateMutability": "view",
      "type": "function",
      "constant": true
    },
    {
      "inputs": [
        {
          "internalType": "address",
          "name": "owner",
          "type": "address"
        },
        {
          "internalType": "address",
          "name": "operator",
          "type": "address"
        }
      ],
      "name": "isApprovedForAll",
      "outputs": [
        {
          "internalType": "bool",
          "name": "",
          "type": "bool"
        }
      ],
      "stateMutability": "view",
      "type": "function",
      "constant": true
    },
    {
      "inputs": [],
      "name": "name",
      "outputs": [
        {
          "internalType": "string",
          "name": "",
          "type": "string"
        }
      ],
      "stateMutability": "view",
      "type": "function",
      "constant": true
    },
    {
      "inputs": [
        {
          "internalType": "uint256",
          "name": "tokenId",
          "type": "uint256"
        }
      ],
      "name": "ownerOf",
      "outputs": [
        {
          "internalType": "address",
          "name": "",
          "type": "address"
        }
      ],
      "stateMutability": "view",
      "type": "function",
      "constant": true
    },
    {
      "inputs": [
        {
          "internalType": "address",
          "name": "from",
          "type": "address"
        },
        {
          "internalType": "address",
          "name": "to",
          "type": "address"
        },
        {
          "internalType": "uint256",
          "name": "tokenId",
          "type": "uint256"
        }
      ],
      "name": "safeTransferFrom",
      "outputs": [],
      "stateMutability": "nonpayable",
      "type": "function"
    },
    {
      "inputs": [
        {
          "internalType": "address",
          "name": "from",
          "type": "address"
        },
        {
          "internalType": "address",
          "name": "to",
          "type": "address"
        },
        {
          "internalType": "uint256",
          "name": "tokenId",
          "type": "uint256"
        },
        {
          "internalType": "bytes",
          "name": "data",
          "type": "bytes"
        }
      ],
      "name": "safeTransferFrom",
      "outputs": [],
      "stateMutability": "nonpayable",
      "type": "function"
    },
    {
      "inputs": [
        {
          "internalType": "address",
          "name": "operator",
          "type": "address"
        },
        {
          "internalType": "bool",
          "name": "approved",
          "type": "bool"
        }
      ],
      "name": "setApprovalForAll",
      "outputs": [],
      "stateMutability": "nonpayable",
      "type": "function"
    },
    {
      "inputs": [
        {
          "internalType": "bytes4",
          "name": "interfaceId",
          "type": "bytes4"
        }
      ],
      "name": "supportsInterface",
      "outputs": [
        {
          "internalType": "bool",
          "name": "",
          "type": "bool"
        }
      ],
      "stateMutability": "view",
      "type": "function",
      "constant": true
    },
    {
      "inputs": [],
      "name": "symbol",
      "outputs": [
        {
          "internalType": "string",
          "name": "",
          "type": "string"
        }
      ],
      "stateMutability": "view",
      "type": "function",
      "constant": true
    },
    {
      "inputs": [
        {
          "internalType": "address",
          "name": "from",
          "type": "address"
        },
        {
          "internalType": "address",
          "name": "to",
          "type": "address"
        },
        {
          "internalType": "uint256",
          "name": "tokenId",
          "type": "uint256"
        }
      ],
      "name": "transferFrom",
      "outputs": [],
      "stateMutability": "nonpayable",
      "type": "function"
    },
    {
      "inputs": [],
      "name": "mint",
      "outputs": [],
      "stateMutability": "nonpayable",
      "type": "function"
    },
    {
      "inputs": [
        {
          "internalType": "uint256",
          "name": "_tokenId",
          "type": "uint256"
        }
      ],
      "name": "tokenURI",
      "outputs": [
        {
          "internalType": "string",
          "name": "",
          "type": "string"
        }
      ],
      "stateMutability": "view",
      "type": "function",
      "constant": true
    },
    {
      "inputs": [
        {
          "internalType": "address",
          "name": "hodler",
          "type": "address"
        }
      ],
      "name": "userTokenIDs",
      "outputs": [
        {
          "internalType": "uint256[]",
          "name": "",
          "type": "uint256[]"
        }
      ],
      "stateMutability": "view",
      "type": "function",
      "constant": true
    }
  ],
  "bytecode": "0x60806040526040518060600160405280602f815260200162002695602f91396008908051906020019062000035929190620000ea565b503480156200004357600080fd5b506040518060400160405280600581526020017f4e696674790000000000000000000000000000000000000000000000000000008152506040518060400160405280600381526020017f4e465400000000000000000000000000000000000000000000000000000000008152508160009080519060200190620000c8929190620000ea565b508060019080519060200190620000e1929190620000ea565b505050620001ff565b828054620000f890620001c9565b90600052602060002090601f0160209004810192826200011c576000855562000168565b82601f106200013757805160ff191683800117855562000168565b8280016001018555821562000168579182015b82811115620001675782518255916020019190600101906200014a565b5b5090506200017791906200017b565b5090565b5b80821115620001965760008160009055506001016200017c565b5090565b7f4e487b7100000000000000000000000000000000000000000000000000000000600052602260045260246000fd5b60006002820490506001821680620001e257607f821691505b60208210811415620001f957620001f86200019a565b5b50919050565b612486806200020f6000396000f3fe608060405234801561001057600080fd5b50600436106100f55760003560e01c80636352211e11610097578063b88d4fde11610066578063b88d4fde14610270578063c87b56dd1461028c578063e985e9c5146102bc578063fbfeeffd146102ec576100f5565b80636352211e146101d657806370a082311461020657806395d89b4114610236578063a22cb46514610254576100f5565b8063095ea7b3116100d3578063095ea7b3146101785780631249c58b1461019457806323b872dd1461019e57806342842e0e146101ba576100f5565b806301ffc9a7146100fa57806306fdde031461012a578063081812fc14610148575b600080fd5b610114600480360381019061010f91906116a2565b61031c565b60405161012191906116ea565b60405180910390f35b6101326103fe565b60405161013f919061179e565b60405180910390f35b610162600480360381019061015d91906117f6565b610490565b60405161016f9190611864565b60405180910390f35b610192600480360381019061018d91906118ab565b6104d6565b005b61019c6105ee565b005b6101b860048036038101906101b391906118eb565b61067e565b005b6101d460048036038101906101cf91906118eb565b6106de565b005b6101f060048036038101906101eb91906117f6565b6106fe565b6040516101fd9190611864565b60405180910390f35b610220600480360381019061021b919061193e565b610785565b60405161022d919061197a565b60405180910390f35b61023e61083d565b60405161024b919061179e565b60405180910390f35b61026e600480360381019061026991906119c1565b6108cf565b005b61028a60048036038101906102859190611b36565b6108e5565b005b6102a660048036038101906102a191906117f6565b610947565b6040516102b3919061179e565b60405180910390f35b6102d660048036038101906102d19190611bb9565b6109db565b6040516102e391906116ea565b60405180910390f35b6103066004803603810190610301919061193e565b610a6f565b6040516103139190611cb7565b60405180910390f35b60007f80ac58cd000000000000000000000000000000000000000000000000000000007bffffffffffffffffffffffffffffffffffffffffffffffffffffffff1916827bffffffffffffffffffffffffffffffffffffffffffffffffffffffff191614806103e757507f5b5e139f000000000000000000000000000000000000000000000000000000007bffffffffffffffffffffffffffffffffffffffffffffffffffffffff1916827bffffffffffffffffffffffffffffffffffffffffffffffffffffffff1916145b806103f757506103f682610b06565b5b9050919050565b60606000805461040d90611d08565b80601f016020809104026020016040519081016040528092919081815260200182805461043990611d08565b80156104865780601f1061045b57610100808354040283529160200191610486565b820191906000526020600020905b81548152906001019060200180831161046957829003601f168201915b5050505050905090565b600061049b82610b70565b6004600083815260200190815260200160002060009054906101000a900473ffffffffffffffffffffffffffffffffffffffff169050919050565b60006104e1826106fe565b90508073ffffffffffffffffffffffffffffffffffffffff168373ffffffffffffffffffffffffffffffffffffffff161415610552576040517f08c379a000000000000000000000000000000000000000000000000000000000815260040161054990611dac565b60405180910390fd5b8073ffffffffffffffffffffffffffffffffffffffff16610571610bbb565b73ffffffffffffffffffffffffffffffffffffffff1614806105a0575061059f8161059a610bbb565b6109db565b5b6105df576040517f08c379a00000000000000000000000000000000000000000000000000000000081526004016105d690611e3e565b60405180910390fd5b6105e98383610bc3565b505050565b60006001600660008282546106039190611e8d565b9250508190559050600760003373ffffffffffffffffffffffffffffffffffffffff1673ffffffffffffffffffffffffffffffffffffffff16815260200190815260200160002081908060018154018082558091505060019003906000526020600020016000909190919091505561067b3382610c7c565b50565b61068f610689610bbb565b82610e9a565b6106ce576040517f08c379a00000000000000000000000000000000000000000000000000000000081526004016106c590611f55565b60405180910390fd5b6106d9838383610f2f565b505050565b6106f9838383604051806020016040528060008152506108e5565b505050565b60008061070a83611229565b9050600073ffffffffffffffffffffffffffffffffffffffff168173ffffffffffffffffffffffffffffffffffffffff16141561077c576040517f08c379a000000000000000000000000000000000000000000000000000000000815260040161077390611fc1565b60405180910390fd5b80915050919050565b60008073ffffffffffffffffffffffffffffffffffffffff168273ffffffffffffffffffffffffffffffffffffffff1614156107f6576040517f08c379a00000000000000000000000000000000000000000000000000000000081526004016107ed90612053565b60405180910390fd5b600360008373ffffffffffffffffffffffffffffffffffffffff1673ffffffffffffffffffffffffffffffffffffffff168152602001908152602001600020549050919050565b60606001805461084c90611d08565b80601f016020809104026020016040519081016040528092919081815260200182805461087890611d08565b80156108c55780601f1061089a576101008083540402835291602001916108c5565b820191906000526020600020905b8154815290600101906020018083116108a857829003601f168201915b5050505050905090565b6108e16108da610bbb565b8383611266565b5050565b6108f66108f0610bbb565b83610e9a565b610935576040517f08c379a000000000000000000000000000000000000000000000000000000000815260040161092c90611f55565b60405180910390fd5b610941848484846113d3565b50505050565b60606008805461095690611d08565b80601f016020809104026020016040519081016040528092919081815260200182805461098290611d08565b80156109cf5780601f106109a4576101008083540402835291602001916109cf565b820191906000526020600020905b8154815290600101906020018083116109b257829003601f168201915b50505050509050919050565b6000600560008473ffffffffffffffffffffffffffffffffffffffff1673ffffffffffffffffffffffffffffffffffffffff16815260200190815260200160002060008373ffffffffffffffffffffffffffffffffffffffff1673ffffffffffffffffffffffffffffffffffffffff16815260200190815260200160002060009054906101000a900460ff16905092915050565b6060600760008373ffffffffffffffffffffffffffffffffffffffff1673ffffffffffffffffffffffffffffffffffffffff168152602001908152602001600020805480602002602001604051908101604052809291908181526020018280548015610afa57602002820191906000526020600020905b815481526020019060010190808311610ae6575b50505050509050919050565b60007f01ffc9a7000000000000000000000000000000000000000000000000000000007bffffffffffffffffffffffffffffffffffffffffffffffffffffffff1916827bffffffffffffffffffffffffffffffffffffffffffffffffffffffff1916149050919050565b610b798161142f565b610bb8576040517f08c379a0000000000000000000000000000000000000000000000000000000008152600401610baf90611fc1565b60405180910390fd5b50565b600033905090565b816004600083815260200190815260200160002060006101000a81548173ffffffffffffffffffffffffffffffffffffffff021916908373ffffffffffffffffffffffffffffffffffffffff160217905550808273ffffffffffffffffffffffffffffffffffffffff16610c36836106fe565b73ffffffffffffffffffffffffffffffffffffffff167f8c5be1e5ebec7d5bd14f71427d1e84f3dd0314c0f7b2291e5b200ac8c7c3b92560405160405180910390a45050565b600073ffffffffffffffffffffffffffffffffffffffff168273ffffffffffffffffffffffffffffffffffffffff161415610cec576040517f08c379a0000000000000000000000000000000000000000000000000000000008152600401610ce3906120bf565b60405180910390fd5b610cf58161142f565b15610d35576040517f08c379a0000000000000000000000000000000000000000000000000000000008152600401610d2c9061212b565b60405180910390fd5b610d43600083836001611470565b610d4c8161142f565b15610d8c576040517f08c379a0000000000000000000000000000000000000000000000000000000008152600401610d839061212b565b60405180910390fd5b6001600360008473ffffffffffffffffffffffffffffffffffffffff1673ffffffffffffffffffffffffffffffffffffffff16815260200190815260200160002060008282540192505081905550816002600083815260200190815260200160002060006101000a81548173ffffffffffffffffffffffffffffffffffffffff021916908373ffffffffffffffffffffffffffffffffffffffff160217905550808273ffffffffffffffffffffffffffffffffffffffff16600073ffffffffffffffffffffffffffffffffffffffff167fddf252ad1be2c89b69c2b068fc378daa952ba7f163c4a11628f55a4df523b3ef60405160405180910390a4610e96600083836001611476565b5050565b600080610ea6836106fe565b90508073ffffffffffffffffffffffffffffffffffffffff168473ffffffffffffffffffffffffffffffffffffffff161480610ee85750610ee781856109db565b5b80610f2657508373ffffffffffffffffffffffffffffffffffffffff16610f0e84610490565b73ffffffffffffffffffffffffffffffffffffffff16145b91505092915050565b8273ffffffffffffffffffffffffffffffffffffffff16610f4f826106fe565b73ffffffffffffffffffffffffffffffffffffffff1614610fa5576040517f08c379a0000000000000000000000000000000000000000000000000000000008152600401610f9c906121bd565b60405180910390fd5b600073ffffffffffffffffffffffffffffffffffffffff168273ffffffffffffffffffffffffffffffffffffffff161415611015576040517f08c379a000000000000000000000000000000000000000000000000000000000815260040161100c9061224f565b60405180910390fd5b6110228383836001611470565b8273ffffffffffffffffffffffffffffffffffffffff16611042826106fe565b73ffffffffffffffffffffffffffffffffffffffff1614611098576040517f08c379a000000000000000000000000000000000000000000000000000000000815260040161108f906121bd565b60405180910390fd5b6004600082815260200190815260200160002060006101000a81549073ffffffffffffffffffffffffffffffffffffffff02191690556001600360008573ffffffffffffffffffffffffffffffffffffffff1673ffffffffffffffffffffffffffffffffffffffff168152602001908152602001600020600082825403925050819055506001600360008473ffffffffffffffffffffffffffffffffffffffff1673ffffffffffffffffffffffffffffffffffffffff16815260200190815260200160002060008282540192505081905550816002600083815260200190815260200160002060006101000a81548173ffffffffffffffffffffffffffffffffffffffff021916908373ffffffffffffffffffffffffffffffffffffffff160217905550808273ffffffffffffffffffffffffffffffffffffffff168473ffffffffffffffffffffffffffffffffffffffff167fddf252ad1be2c89b69c2b068fc378daa952ba7f163c4a11628f55a4df523b3ef60405160405180910390a46112248383836001611476565b505050565b60006002600083815260200190815260200160002060009054906101000a900473ffffffffffffffffffffffffffffffffffffffff169050919050565b8173ffffffffffffffffffffffffffffffffffffffff168373ffffffffffffffffffffffffffffffffffffffff1614156112d5576040517f08c379a00000000000000000000000000000000000000000000000000000000081526004016112cc906122bb565b60405180910390fd5b80600560008573ffffffffffffffffffffffffffffffffffffffff1673ffffffffffffffffffffffffffffffffffffffff16815260200190815260200160002060008473ffffffffffffffffffffffffffffffffffffffff1673ffffffffffffffffffffffffffffffffffffffff16815260200190815260200160002060006101000a81548160ff0219169083151502179055508173ffffffffffffffffffffffffffffffffffffffff168373ffffffffffffffffffffffffffffffffffffffff167f17307eab39ab6107e8899845ad3d59bd9653f200f220920489ca2b5937696c31836040516113c691906116ea565b60405180910390a3505050565b6113de848484610f2f565b6113ea8484848461147c565b611429576040517f08c379a00000000000000000000000000000000000000000000000000000000081526004016114209061234d565b60405180910390fd5b50505050565b60008073ffffffffffffffffffffffffffffffffffffffff1661145183611229565b73ffffffffffffffffffffffffffffffffffffffff1614159050919050565b50505050565b50505050565b600061149d8473ffffffffffffffffffffffffffffffffffffffff16611613565b15611606578373ffffffffffffffffffffffffffffffffffffffff1663150b7a026114c6610bbb565b8786866040518563ffffffff1660e01b81526004016114e894939291906123c2565b602060405180830381600087803b15801561150257600080fd5b505af192505050801561153357506040513d601f19601f820116820180604052508101906115309190612423565b60015b6115b6573d8060008114611563576040519150601f19603f3d011682016040523d82523d6000602084013e611568565b606091505b506000815114156115ae576040517f08c379a00000000000000000000000000000000000000000000000000000000081526004016115a59061234d565b60405180910390fd5b805181602001fd5b63150b7a0260e01b7bffffffffffffffffffffffffffffffffffffffffffffffffffffffff1916817bffffffffffffffffffffffffffffffffffffffffffffffffffffffff19161491505061160b565b600190505b949350505050565b6000808273ffffffffffffffffffffffffffffffffffffffff163b119050919050565b6000604051905090565b600080fd5b600080fd5b60007fffffffff0000000000000000000000000000000000000000000000000000000082169050919050565b61167f8161164a565b811461168a57600080fd5b50565b60008135905061169c81611676565b92915050565b6000602082840312156116b8576116b7611640565b5b60006116c68482850161168d565b91505092915050565b60008115159050919050565b6116e4816116cf565b82525050565b60006020820190506116ff60008301846116db565b92915050565b600081519050919050565b600082825260208201905092915050565b60005b8381101561173f578082015181840152602081019050611724565b8381111561174e576000848401525b50505050565b6000601f19601f8301169050919050565b600061177082611705565b61177a8185611710565b935061178a818560208601611721565b61179381611754565b840191505092915050565b600060208201905081810360008301526117b88184611765565b905092915050565b6000819050919050565b6117d3816117c0565b81146117de57600080fd5b50565b6000813590506117f0816117ca565b92915050565b60006020828403121561180c5761180b611640565b5b600061181a848285016117e1565b91505092915050565b600073ffffffffffffffffffffffffffffffffffffffff82169050919050565b600061184e82611823565b9050919050565b61185e81611843565b82525050565b60006020820190506118796000830184611855565b92915050565b61188881611843565b811461189357600080fd5b50565b6000813590506118a58161187f565b92915050565b600080604083850312156118c2576118c1611640565b5b60006118d085828601611896565b92505060206118e1858286016117e1565b9150509250929050565b60008060006060848603121561190457611903611640565b5b600061191286828701611896565b935050602061192386828701611896565b9250506040611934868287016117e1565b9150509250925092565b60006020828403121561195457611953611640565b5b600061196284828501611896565b91505092915050565b611974816117c0565b82525050565b600060208201905061198f600083018461196b565b92915050565b61199e816116cf565b81146119a957600080fd5b50565b6000813590506119bb81611995565b92915050565b600080604083850312156119d8576119d7611640565b5b60006119e685828601611896565b92505060206119f7858286016119ac565b9150509250929050565b600080fd5b600080fd5b7f4e487b7100000000000000000000000000000000000000000000000000000000600052604160045260246000fd5b611a4382611754565b810181811067ffffffffffffffff82111715611a6257611a61611a0b565b5b80604052505050565b6000611a75611636565b9050611a818282611a3a565b919050565b600067ffffffffffffffff821115611aa157611aa0611a0b565b5b611aaa82611754565b9050602081019050919050565b82818337600083830152505050565b6000611ad9611ad484611a86565b611a6b565b905082815260208101848484011115611af557611af4611a06565b5b611b00848285611ab7565b509392505050565b600082601f830112611b1d57611b1c611a01565b5b8135611b2d848260208601611ac6565b91505092915050565b60008060008060808587031215611b5057611b4f611640565b5b6000611b5e87828801611896565b9450506020611b6f87828801611896565b9350506040611b80878288016117e1565b925050606085013567ffffffffffffffff811115611ba157611ba0611645565b5b611bad87828801611b08565b91505092959194509250565b60008060408385031215611bd057611bcf611640565b5b6000611bde85828601611896565b9250506020611bef85828601611896565b9150509250929050565b600081519050919050565b600082825260208201905092915050565b6000819050602082019050919050565b611c2e816117c0565b82525050565b6000611c408383611c25565b60208301905092915050565b6000602082019050919050565b6000611c6482611bf9565b611c6e8185611c04565b9350611c7983611c15565b8060005b83811015611caa578151611c918882611c34565b9750611c9c83611c4c565b925050600181019050611c7d565b5085935050505092915050565b60006020820190508181036000830152611cd18184611c59565b905092915050565b7f4e487b7100000000000000000000000000000000000000000000000000000000600052602260045260246000fd5b60006002820490506001821680611d2057607f821691505b60208210811415611d3457611d33611cd9565b5b50919050565b7f4552433732313a20617070726f76616c20746f2063757272656e74206f776e6560008201527f7200000000000000000000000000000000000000000000000000000000000000602082015250565b6000611d96602183611710565b9150611da182611d3a565b604082019050919050565b60006020820190508181036000830152611dc581611d89565b9050919050565b7f4552433732313a20617070726f76652063616c6c6572206973206e6f7420746f60008201527f6b656e206f776e6572206f7220617070726f76656420666f7220616c6c000000602082015250565b6000611e28603d83611710565b9150611e3382611dcc565b604082019050919050565b60006020820190508181036000830152611e5781611e1b565b9050919050565b7f4e487b7100000000000000000000000000000000000000000000000000000000600052601160045260246000fd5b6000611e98826117c0565b9150611ea3836117c0565b9250827fffffffffffffffffffffffffffffffffffffffffffffffffffffffffffffffff03821115611ed857611ed7611e5e565b5b828201905092915050565b7f4552433732313a2063616c6c6572206973206e6f7420746f6b656e206f776e6560008201527f72206f7220617070726f76656400000000000000000000000000000000000000602082015250565b6000611f3f602d83611710565b9150611f4a82611ee3565b604082019050919050565b60006020820190508181036000830152611f6e81611f32565b9050919050565b7f4552433732313a20696e76616c696420746f6b656e2049440000000000000000600082015250565b6000611fab601883611710565b9150611fb682611f75565b602082019050919050565b60006020820190508181036000830152611fda81611f9e565b9050919050565b7f4552433732313a2061646472657373207a65726f206973206e6f74206120766160008201527f6c6964206f776e65720000000000000000000000000000000000000000000000602082015250565b600061203d602983611710565b915061204882611fe1565b604082019050919050565b6000602082019050818103600083015261206c81612030565b9050919050565b7f4552433732313a206d696e7420746f20746865207a65726f2061646472657373600082015250565b60006120a9602083611710565b91506120b482612073565b602082019050919050565b600060208201905081810360008301526120d88161209c565b9050919050565b7f4552433732313a20746f6b656e20616c7265616479206d696e74656400000000600082015250565b6000612115601c83611710565b9150612120826120df565b602082019050919050565b6000602082019050818103600083015261214481612108565b9050919050565b7f4552433732313a207472616e736665722066726f6d20696e636f72726563742060008201527f6f776e6572000000000000000000000000000000000000000000000000000000602082015250565b60006121a7602583611710565b91506121b28261214b565b604082019050919050565b600060208201905081810360008301526121d68161219a565b9050919050565b7f4552433732313a207472616e7366657220746f20746865207a65726f2061646460008201527f7265737300000000000000000000000000000000000000000000000000000000602082015250565b6000612239602483611710565b9150612244826121dd565b604082019050919050565b600060208201905081810360008301526122688161222c565b9050919050565b7f4552433732313a20617070726f766520746f2063616c6c657200000000000000600082015250565b60006122a5601983611710565b91506122b08261226f565b602082019050919050565b600060208201905081810360008301526122d481612298565b9050919050565b7f4552433732313a207472616e7366657220746f206e6f6e20455243373231526560008201527f63656976657220696d706c656d656e7465720000000000000000000000000000602082015250565b6000612337603283611710565b9150612342826122db565b604082019050919050565b600060208201905081810360008301526123668161232a565b9050919050565b600081519050919050565b600082825260208201905092915050565b60006123948261236d565b61239e8185612378565b93506123ae818560208601611721565b6123b781611754565b840191505092915050565b60006080820190506123d76000830187611855565b6123e46020830186611855565b6123f1604083018561196b565b81810360608301526124038184612389565b905095945050505050565b60008151905061241d81611676565b92915050565b60006020828403121561243957612438611640565b5b60006124478482850161240e565b9150509291505056fea26469706673582212203b9f033fd25146660359eb74da1ea17e2479375e9688cf09aee770f83a1c3a9364736f6c6343000808003368747470733a2f2f696d61676573322e696d67626f782e636f6d2f35622f30322f51637848556235565f6f2e706e67",
  "immutableReferences": {},
  "source": "//SPDX-License-Identifier: MIT\npragma solidity 0.8.8;\n\nimport \"@openzeppelin/contracts/token/ERC721/ERC721.sol\";\n\ncontract Nifty is ERC721 {\n    \n    uint256 lasTokenID;\n    mapping(address => uint[]) tokenIDs;\n\n    string uri = \"https://images2.imgbox.com/5b/02/QcxHUb5V_o.png\";\n\n    constructor() ERC721(\"Nifty\", \"NFT\") {}\n\n    function mint() external {\n        uint newTokenId = lasTokenID += 1;\n        tokenIDs[msg.sender].push(newTokenId);\n        _mint(msg.sender, newTokenId);\n    }\n\n    function tokenURI(uint _tokenId) public view override returns(string memory) {\n        return uri;\n    }\n\n    function userTokenIDs(address hodler) public view returns (uint[] memory) {\n        return(tokenIDs[hodler]);\n    }\n\n}\n",
  "sourcePath": "/home/gypsum/Coding/DAO/backend/contracts/NiFTy.sol",
  "compiler": {
    "name": "solc",
    "version": "0.8.8+commit.dddeac2f.Emscripten.clang"
  },
  "schemaVersion": "3.4.14",
  "updatedAt": "2023-09-07T13:48:30.487Z",
  "networkType": "ethereum",
  "devdoc": {
    "kind": "dev",
    "methods": {
      "approve(address,uint256)": {
        "details": "See {IERC721-approve}."
      },
      "balanceOf(address)": {
        "details": "See {IERC721-balanceOf}."
      },
      "getApproved(uint256)": {
        "details": "See {IERC721-getApproved}."
      },
      "isApprovedForAll(address,address)": {
        "details": "See {IERC721-isApprovedForAll}."
      },
      "name()": {
        "details": "See {IERC721Metadata-name}."
      },
      "ownerOf(uint256)": {
        "details": "See {IERC721-ownerOf}."
      },
      "safeTransferFrom(address,address,uint256)": {
        "details": "See {IERC721-safeTransferFrom}."
      },
      "safeTransferFrom(address,address,uint256,bytes)": {
        "details": "See {IERC721-safeTransferFrom}."
      },
      "setApprovalForAll(address,bool)": {
        "details": "See {IERC721-setApprovalForAll}."
      },
      "supportsInterface(bytes4)": {
        "details": "See {IERC165-supportsInterface}."
      },
      "symbol()": {
        "details": "See {IERC721Metadata-symbol}."
      },
      "transferFrom(address,address,uint256)": {
        "details": "See {IERC721-transferFrom}."
      }
    },
    "version": 1
  },
  "userdoc": {
    "kind": "user",
    "methods": {},
    "version": 1
  }
}