{
  "contractName": "Nifty",
  "abi": [
    {
      "inputs": [],
      "stateMutability": "nonpayable",
      "type": "constructor"
    },
    {
      "anonymous": false,
      "inputs": [
        {
          "indexed": true,
          "internalType": "address",
          "name": "owner",
          "type": "address"
        },
        {
          "indexed": true,
          "internalType": "address",
          "name": "approved",
          "type": "address"
        },
        {
          "indexed": true,
          "internalType": "uint256",
          "name": "tokenId",
          "type": "uint256"
        }
      ],
      "name": "Approval",
      "type": "event"
    },
    {
      "anonymous": false,
      "inputs": [
        {
          "indexed": true,
          "internalType": "address",
          "name": "owner",
          "type": "address"
        },
        {
          "indexed": true,
          "internalType": "address",
          "name": "operator",
          "type": "address"
        },
        {
          "indexed": false,
          "internalType": "bool",
          "name": "approved",
          "type": "bool"
        }
      ],
      "name": "ApprovalForAll",
      "type": "event"
    },
    {
      "anonymous": false,
      "inputs": [
        {
          "indexed": true,
          "internalType": "address",
          "name": "from",
          "type": "address"
        },
        {
          "indexed": true,
          "internalType": "address",
          "name": "to",
          "type": "address"
        },
        {
          "indexed": true,
          "internalType": "uint256",
          "name": "tokenId",
          "type": "uint256"
        }
      ],
      "name": "Transfer",
      "type": "event"
    },
    {
      "inputs": [
        {
          "internalType": "address",
          "name": "to",
          "type": "address"
        },
        {
          "internalType": "uint256",
          "name": "tokenId",
          "type": "uint256"
        }
      ],
      "name": "approve",
      "outputs": [],
      "stateMutability": "nonpayable",
      "type": "function"
    },
    {
      "inputs": [
        {
          "internalType": "address",
          "name": "owner",
          "type": "address"
        }
      ],
      "name": "balanceOf",
      "outputs": [
        {
          "internalType": "uint256",
          "name": "",
          "type": "uint256"
        }
      ],
      "stateMutability": "view",
      "type": "function",
      "constant": true
    },
    {
      "inputs": [
        {
          "internalType": "uint256",
          "name": "tokenId",
          "type": "uint256"
        }
      ],
      "name": "getApproved",
      "outputs": [
        {
          "internalType": "address",
          "name": "",
          "type": "address"
        }
      ],
      "stateMutability": "view",
      "type": "function",
      "constant": true
    },
    {
      "inputs": [
        {
          "internalType": "address",
          "name": "owner",
          "type": "address"
        },
        {
          "internalType": "address",
          "name": "operator",
          "type": "address"
        }
      ],
      "name": "isApprovedForAll",
      "outputs": [
        {
          "internalType": "bool",
          "name": "",
          "type": "bool"
        }
      ],
      "stateMutability": "view",
      "type": "function",
      "constant": true
    },
    {
      "inputs": [],
      "name": "name",
      "outputs": [
        {
          "internalType": "string",
          "name": "",
          "type": "string"
        }
      ],
      "stateMutability": "view",
      "type": "function",
      "constant": true
    },
    {
      "inputs": [
        {
          "internalType": "uint256",
          "name": "tokenId",
          "type": "uint256"
        }
      ],
      "name": "ownerOf",
      "outputs": [
        {
          "internalType": "address",
          "name": "",
          "type": "address"
        }
      ],
      "stateMutability": "view",
      "type": "function",
      "constant": true
    },
    {
      "inputs": [
        {
          "internalType": "address",
          "name": "from",
          "type": "address"
        },
        {
          "internalType": "address",
          "name": "to",
          "type": "address"
        },
        {
          "internalType": "uint256",
          "name": "tokenId",
          "type": "uint256"
        }
      ],
      "name": "safeTransferFrom",
      "outputs": [],
      "stateMutability": "nonpayable",
      "type": "function"
    },
    {
      "inputs": [
        {
          "internalType": "address",
          "name": "from",
          "type": "address"
        },
        {
          "internalType": "address",
          "name": "to",
          "type": "address"
        },
        {
          "internalType": "uint256",
          "name": "tokenId",
          "type": "uint256"
        },
        {
          "internalType": "bytes",
          "name": "data",
          "type": "bytes"
        }
      ],
      "name": "safeTransferFrom",
      "outputs": [],
      "stateMutability": "nonpayable",
      "type": "function"
    },
    {
      "inputs": [
        {
          "internalType": "address",
          "name": "operator",
          "type": "address"
        },
        {
          "internalType": "bool",
          "name": "approved",
          "type": "bool"
        }
      ],
      "name": "setApprovalForAll",
      "outputs": [],
      "stateMutability": "nonpayable",
      "type": "function"
    },
    {
      "inputs": [
        {
          "internalType": "bytes4",
          "name": "interfaceId",
          "type": "bytes4"
        }
      ],
      "name": "supportsInterface",
      "outputs": [
        {
          "internalType": "bool",
          "name": "",
          "type": "bool"
        }
      ],
      "stateMutability": "view",
      "type": "function",
      "constant": true
    },
    {
      "inputs": [],
      "name": "symbol",
      "outputs": [
        {
          "internalType": "string",
          "name": "",
          "type": "string"
        }
      ],
      "stateMutability": "view",
      "type": "function",
      "constant": true
    },
    {
      "inputs": [
        {
          "internalType": "address",
          "name": "from",
          "type": "address"
        },
        {
          "internalType": "address",
          "name": "to",
          "type": "address"
        },
        {
          "internalType": "uint256",
          "name": "tokenId",
          "type": "uint256"
        }
      ],
      "name": "transferFrom",
      "outputs": [],
      "stateMutability": "nonpayable",
      "type": "function"
    },
    {
      "inputs": [
        {
          "internalType": "bool",
          "name": "prioritee",
          "type": "bool"
        }
      ],
      "name": "mint",
      "outputs": [],
      "stateMutability": "nonpayable",
      "type": "function"
    },
    {
      "inputs": [
        {
          "internalType": "uint256",
          "name": "tokenId",
          "type": "uint256"
        }
      ],
      "name": "tokenURI",
      "outputs": [
        {
          "internalType": "string",
          "name": "",
          "type": "string"
        }
      ],
      "stateMutability": "view",
      "type": "function",
      "constant": true
    },
    {
      "inputs": [
        {
          "internalType": "address",
          "name": "hodler",
          "type": "address"
        }
      ],
      "name": "userTokenIDs",
      "outputs": [
        {
          "internalType": "uint256[]",
          "name": "",
          "type": "uint256[]"
        }
      ],
      "stateMutability": "view",
      "type": "function",
      "constant": true
    }
  ],
  "bytecode": "0x60806040526040518060400160405280602081526020017f68747470733a2f2f692e696d6775722e636f6d2f6c3070336c42612e6a706567815250600990805190602001906200005192919062000154565b506040518060400160405280602081526020017f68747470733a2f2f692e696d6775722e636f6d2f6f5762695238562e6a706567815250600a90805190602001906200009f92919062000154565b50348015620000ad57600080fd5b506040518060400160405280600581526020017f4e696674790000000000000000000000000000000000000000000000000000008152506040518060400160405280600381526020017f4e4654000000000000000000000000000000000000000000000000000000000081525081600090805190602001906200013292919062000154565b5080600190805190602001906200014b92919062000154565b50505062000269565b828054620001629062000233565b90600052602060002090601f016020900481019282620001865760008555620001d2565b82601f10620001a157805160ff1916838001178555620001d2565b82800160010185558215620001d2579182015b82811115620001d1578251825591602001919060010190620001b4565b5b509050620001e19190620001e5565b5090565b5b8082111562000200576000816000905550600101620001e6565b5090565b7f4e487b7100000000000000000000000000000000000000000000000000000000600052602260045260246000fd5b600060028204905060018216806200024c57607f821691505b6020821081141562000263576200026262000204565b5b50919050565b6125aa80620002796000396000f3fe608060405234801561001057600080fd5b50600436106100f55760003560e01c80636352211e11610097578063b88d4fde11610066578063b88d4fde14610282578063c87b56dd1461029e578063e985e9c5146102ce578063fbfeeffd146102fe576100f5565b80636352211e146101e857806370a082311461021857806395d89b4114610248578063a22cb46514610266576100f5565b8063095ea7b3116100d3578063095ea7b31461017857806318c41a801461019457806323b872dd146101b057806342842e0e146101cc576100f5565b806301ffc9a7146100fa57806306fdde031461012a578063081812fc14610148575b600080fd5b610114600480360381019061010f9190611799565b61032e565b60405161012191906117e1565b60405180910390f35b610132610410565b60405161013f9190611895565b60405180910390f35b610162600480360381019061015d91906118ed565b6104a2565b60405161016f919061195b565b60405180910390f35b610192600480360381019061018d91906119a2565b6104e8565b005b6101ae60048036038101906101a99190611a0e565b610600565b005b6101ca60048036038101906101c59190611a3b565b6106bc565b005b6101e660048036038101906101e19190611a3b565b61071c565b005b61020260048036038101906101fd91906118ed565b61073c565b60405161020f919061195b565b60405180910390f35b610232600480360381019061022d9190611a8e565b6107c3565b60405161023f9190611aca565b60405180910390f35b61025061087b565b60405161025d9190611895565b60405180910390f35b610280600480360381019061027b9190611ae5565b61090d565b005b61029c60048036038101906102979190611c5a565b610923565b005b6102b860048036038101906102b391906118ed565b610985565b6040516102c59190611895565b60405180910390f35b6102e860048036038101906102e39190611cdd565b610ad2565b6040516102f591906117e1565b60405180910390f35b61031860048036038101906103139190611a8e565b610b66565b6040516103259190611ddb565b60405180910390f35b60007f80ac58cd000000000000000000000000000000000000000000000000000000007bffffffffffffffffffffffffffffffffffffffffffffffffffffffff1916827bffffffffffffffffffffffffffffffffffffffffffffffffffffffff191614806103f957507f5b5e139f000000000000000000000000000000000000000000000000000000007bffffffffffffffffffffffffffffffffffffffffffffffffffffffff1916827bffffffffffffffffffffffffffffffffffffffffffffffffffffffff1916145b80610409575061040882610bfd565b5b9050919050565b60606000805461041f90611e2c565b80601f016020809104026020016040519081016040528092919081815260200182805461044b90611e2c565b80156104985780601f1061046d57610100808354040283529160200191610498565b820191906000526020600020905b81548152906001019060200180831161047b57829003601f168201915b5050505050905090565b60006104ad82610c67565b6004600083815260200190815260200160002060009054906101000a900473ffffffffffffffffffffffffffffffffffffffff169050919050565b60006104f38261073c565b90508073ffffffffffffffffffffffffffffffffffffffff168373ffffffffffffffffffffffffffffffffffffffff161415610564576040517f08c379a000000000000000000000000000000000000000000000000000000000815260040161055b90611ed0565b60405180910390fd5b8073ffffffffffffffffffffffffffffffffffffffff16610583610cb2565b73ffffffffffffffffffffffffffffffffffffffff1614806105b257506105b1816105ac610cb2565b610ad2565b5b6105f1576040517f08c379a00000000000000000000000000000000000000000000000000000000081526004016105e890611f62565b60405180910390fd5b6105fb8383610cba565b505050565b60006001600660008282546106159190611fb1565b9250508190559050816008600083815260200190815260200160002060006101000a81548160ff021916908315150217905550600760003373ffffffffffffffffffffffffffffffffffffffff1673ffffffffffffffffffffffffffffffffffffffff1681526020019081526020016000208190806001815401808255809150506001900390600052602060002001600090919091909150556106b83382610d73565b5050565b6106cd6106c7610cb2565b82610f91565b61070c576040517f08c379a000000000000000000000000000000000000000000000000000000000815260040161070390612079565b60405180910390fd5b610717838383611026565b505050565b61073783838360405180602001604052806000815250610923565b505050565b60008061074883611320565b9050600073ffffffffffffffffffffffffffffffffffffffff168173ffffffffffffffffffffffffffffffffffffffff1614156107ba576040517f08c379a00000000000000000000000000000000000000000000000000000000081526004016107b1906120e5565b60405180910390fd5b80915050919050565b60008073ffffffffffffffffffffffffffffffffffffffff168273ffffffffffffffffffffffffffffffffffffffff161415610834576040517f08c379a000000000000000000000000000000000000000000000000000000000815260040161082b90612177565b60405180910390fd5b600360008373ffffffffffffffffffffffffffffffffffffffff1673ffffffffffffffffffffffffffffffffffffffff168152602001908152602001600020549050919050565b60606001805461088a90611e2c565b80601f01602080910402602001604051908101604052809291908181526020018280546108b690611e2c565b80156109035780601f106108d857610100808354040283529160200191610903565b820191906000526020600020905b8154815290600101906020018083116108e657829003601f168201915b5050505050905090565b61091f610918610cb2565b838361135d565b5050565b61093461092e610cb2565b83610f91565b610973576040517f08c379a000000000000000000000000000000000000000000000000000000000815260040161096a90612079565b60405180910390fd5b61097f848484846114ca565b50505050565b60606008600083815260200190815260200160002060009054906101000a900460ff1615610a3f57600980546109ba90611e2c565b80601f01602080910402602001604051908101604052809291908181526020018280546109e690611e2c565b8015610a335780601f10610a0857610100808354040283529160200191610a33565b820191906000526020600020905b815481529060010190602001808311610a1657829003601f168201915b50505050509050610acd565b600a8054610a4c90611e2c565b80601f0160208091040260200160405190810160405280929190818152602001828054610a7890611e2c565b8015610ac55780601f10610a9a57610100808354040283529160200191610ac5565b820191906000526020600020905b815481529060010190602001808311610aa857829003601f168201915b505050505090505b919050565b6000600560008473ffffffffffffffffffffffffffffffffffffffff1673ffffffffffffffffffffffffffffffffffffffff16815260200190815260200160002060008373ffffffffffffffffffffffffffffffffffffffff1673ffffffffffffffffffffffffffffffffffffffff16815260200190815260200160002060009054906101000a900460ff16905092915050565b6060600760008373ffffffffffffffffffffffffffffffffffffffff1673ffffffffffffffffffffffffffffffffffffffff168152602001908152602001600020805480602002602001604051908101604052809291908181526020018280548015610bf157602002820191906000526020600020905b815481526020019060010190808311610bdd575b50505050509050919050565b60007f01ffc9a7000000000000000000000000000000000000000000000000000000007bffffffffffffffffffffffffffffffffffffffffffffffffffffffff1916827bffffffffffffffffffffffffffffffffffffffffffffffffffffffff1916149050919050565b610c7081611526565b610caf576040517f08c379a0000000000000000000000000000000000000000000000000000000008152600401610ca6906120e5565b60405180910390fd5b50565b600033905090565b816004600083815260200190815260200160002060006101000a81548173ffffffffffffffffffffffffffffffffffffffff021916908373ffffffffffffffffffffffffffffffffffffffff160217905550808273ffffffffffffffffffffffffffffffffffffffff16610d2d8361073c565b73ffffffffffffffffffffffffffffffffffffffff167f8c5be1e5ebec7d5bd14f71427d1e84f3dd0314c0f7b2291e5b200ac8c7c3b92560405160405180910390a45050565b600073ffffffffffffffffffffffffffffffffffffffff168273ffffffffffffffffffffffffffffffffffffffff161415610de3576040517f08c379a0000000000000000000000000000000000000000000000000000000008152600401610dda906121e3565b60405180910390fd5b610dec81611526565b15610e2c576040517f08c379a0000000000000000000000000000000000000000000000000000000008152600401610e239061224f565b60405180910390fd5b610e3a600083836001611567565b610e4381611526565b15610e83576040517f08c379a0000000000000000000000000000000000000000000000000000000008152600401610e7a9061224f565b60405180910390fd5b6001600360008473ffffffffffffffffffffffffffffffffffffffff1673ffffffffffffffffffffffffffffffffffffffff16815260200190815260200160002060008282540192505081905550816002600083815260200190815260200160002060006101000a81548173ffffffffffffffffffffffffffffffffffffffff021916908373ffffffffffffffffffffffffffffffffffffffff160217905550808273ffffffffffffffffffffffffffffffffffffffff16600073ffffffffffffffffffffffffffffffffffffffff167fddf252ad1be2c89b69c2b068fc378daa952ba7f163c4a11628f55a4df523b3ef60405160405180910390a4610f8d60008383600161156d565b5050565b600080610f9d8361073c565b90508073ffffffffffffffffffffffffffffffffffffffff168473ffffffffffffffffffffffffffffffffffffffff161480610fdf5750610fde8185610ad2565b5b8061101d57508373ffffffffffffffffffffffffffffffffffffffff16611005846104a2565b73ffffffffffffffffffffffffffffffffffffffff16145b91505092915050565b8273ffffffffffffffffffffffffffffffffffffffff166110468261073c565b73ffffffffffffffffffffffffffffffffffffffff161461109c576040517f08c379a0000000000000000000000000000000000000000000000000000000008152600401611093906122e1565b60405180910390fd5b600073ffffffffffffffffffffffffffffffffffffffff168273ffffffffffffffffffffffffffffffffffffffff16141561110c576040517f08c379a000000000000000000000000000000000000000000000000000000000815260040161110390612373565b60405180910390fd5b6111198383836001611567565b8273ffffffffffffffffffffffffffffffffffffffff166111398261073c565b73ffffffffffffffffffffffffffffffffffffffff161461118f576040517f08c379a0000000000000000000000000000000000000000000000000000000008152600401611186906122e1565b60405180910390fd5b6004600082815260200190815260200160002060006101000a81549073ffffffffffffffffffffffffffffffffffffffff02191690556001600360008573ffffffffffffffffffffffffffffffffffffffff1673ffffffffffffffffffffffffffffffffffffffff168152602001908152602001600020600082825403925050819055506001600360008473ffffffffffffffffffffffffffffffffffffffff1673ffffffffffffffffffffffffffffffffffffffff16815260200190815260200160002060008282540192505081905550816002600083815260200190815260200160002060006101000a81548173ffffffffffffffffffffffffffffffffffffffff021916908373ffffffffffffffffffffffffffffffffffffffff160217905550808273ffffffffffffffffffffffffffffffffffffffff168473ffffffffffffffffffffffffffffffffffffffff167fddf252ad1be2c89b69c2b068fc378daa952ba7f163c4a11628f55a4df523b3ef60405160405180910390a461131b838383600161156d565b505050565b60006002600083815260200190815260200160002060009054906101000a900473ffffffffffffffffffffffffffffffffffffffff169050919050565b8173ffffffffffffffffffffffffffffffffffffffff168373ffffffffffffffffffffffffffffffffffffffff1614156113cc576040517f08c379a00000000000000000000000000000000000000000000000000000000081526004016113c3906123df565b60405180910390fd5b80600560008573ffffffffffffffffffffffffffffffffffffffff1673ffffffffffffffffffffffffffffffffffffffff16815260200190815260200160002060008473ffffffffffffffffffffffffffffffffffffffff1673ffffffffffffffffffffffffffffffffffffffff16815260200190815260200160002060006101000a81548160ff0219169083151502179055508173ffffffffffffffffffffffffffffffffffffffff168373ffffffffffffffffffffffffffffffffffffffff167f17307eab39ab6107e8899845ad3d59bd9653f200f220920489ca2b5937696c31836040516114bd91906117e1565b60405180910390a3505050565b6114d5848484611026565b6114e184848484611573565b611520576040517f08c379a000000000000000000000000000000000000000000000000000000000815260040161151790612471565b60405180910390fd5b50505050565b60008073ffffffffffffffffffffffffffffffffffffffff1661154883611320565b73ffffffffffffffffffffffffffffffffffffffff1614159050919050565b50505050565b50505050565b60006115948473ffffffffffffffffffffffffffffffffffffffff1661170a565b156116fd578373ffffffffffffffffffffffffffffffffffffffff1663150b7a026115bd610cb2565b8786866040518563ffffffff1660e01b81526004016115df94939291906124e6565b602060405180830381600087803b1580156115f957600080fd5b505af192505050801561162a57506040513d601f19601f820116820180604052508101906116279190612547565b60015b6116ad573d806000811461165a576040519150601f19603f3d011682016040523d82523d6000602084013e61165f565b606091505b506000815114156116a5576040517f08c379a000000000000000000000000000000000000000000000000000000000815260040161169c90612471565b60405180910390fd5b805181602001fd5b63150b7a0260e01b7bffffffffffffffffffffffffffffffffffffffffffffffffffffffff1916817bffffffffffffffffffffffffffffffffffffffffffffffffffffffff191614915050611702565b600190505b949350505050565b6000808273ffffffffffffffffffffffffffffffffffffffff163b119050919050565b6000604051905090565b600080fd5b600080fd5b60007fffffffff0000000000000000000000000000000000000000000000000000000082169050919050565b61177681611741565b811461178157600080fd5b50565b6000813590506117938161176d565b92915050565b6000602082840312156117af576117ae611737565b5b60006117bd84828501611784565b91505092915050565b60008115159050919050565b6117db816117c6565b82525050565b60006020820190506117f660008301846117d2565b92915050565b600081519050919050565b600082825260208201905092915050565b60005b8381101561183657808201518184015260208101905061181b565b83811115611845576000848401525b50505050565b6000601f19601f8301169050919050565b6000611867826117fc565b6118718185611807565b9350611881818560208601611818565b61188a8161184b565b840191505092915050565b600060208201905081810360008301526118af818461185c565b905092915050565b6000819050919050565b6118ca816118b7565b81146118d557600080fd5b50565b6000813590506118e7816118c1565b92915050565b60006020828403121561190357611902611737565b5b6000611911848285016118d8565b91505092915050565b600073ffffffffffffffffffffffffffffffffffffffff82169050919050565b60006119458261191a565b9050919050565b6119558161193a565b82525050565b6000602082019050611970600083018461194c565b92915050565b61197f8161193a565b811461198a57600080fd5b50565b60008135905061199c81611976565b92915050565b600080604083850312156119b9576119b8611737565b5b60006119c78582860161198d565b92505060206119d8858286016118d8565b9150509250929050565b6119eb816117c6565b81146119f657600080fd5b50565b600081359050611a08816119e2565b92915050565b600060208284031215611a2457611a23611737565b5b6000611a32848285016119f9565b91505092915050565b600080600060608486031215611a5457611a53611737565b5b6000611a628682870161198d565b9350506020611a738682870161198d565b9250506040611a84868287016118d8565b9150509250925092565b600060208284031215611aa457611aa3611737565b5b6000611ab28482850161198d565b91505092915050565b611ac4816118b7565b82525050565b6000602082019050611adf6000830184611abb565b92915050565b60008060408385031215611afc57611afb611737565b5b6000611b0a8582860161198d565b9250506020611b1b858286016119f9565b9150509250929050565b600080fd5b600080fd5b7f4e487b7100000000000000000000000000000000000000000000000000000000600052604160045260246000fd5b611b678261184b565b810181811067ffffffffffffffff82111715611b8657611b85611b2f565b5b80604052505050565b6000611b9961172d565b9050611ba58282611b5e565b919050565b600067ffffffffffffffff821115611bc557611bc4611b2f565b5b611bce8261184b565b9050602081019050919050565b82818337600083830152505050565b6000611bfd611bf884611baa565b611b8f565b905082815260208101848484011115611c1957611c18611b2a565b5b611c24848285611bdb565b509392505050565b600082601f830112611c4157611c40611b25565b5b8135611c51848260208601611bea565b91505092915050565b60008060008060808587031215611c7457611c73611737565b5b6000611c828782880161198d565b9450506020611c938782880161198d565b9350506040611ca4878288016118d8565b925050606085013567ffffffffffffffff811115611cc557611cc461173c565b5b611cd187828801611c2c565b91505092959194509250565b60008060408385031215611cf457611cf3611737565b5b6000611d028582860161198d565b9250506020611d138582860161198d565b9150509250929050565b600081519050919050565b600082825260208201905092915050565b6000819050602082019050919050565b611d52816118b7565b82525050565b6000611d648383611d49565b60208301905092915050565b6000602082019050919050565b6000611d8882611d1d565b611d928185611d28565b9350611d9d83611d39565b8060005b83811015611dce578151611db58882611d58565b9750611dc083611d70565b925050600181019050611da1565b5085935050505092915050565b60006020820190508181036000830152611df58184611d7d565b905092915050565b7f4e487b7100000000000000000000000000000000000000000000000000000000600052602260045260246000fd5b60006002820490506001821680611e4457607f821691505b60208210811415611e5857611e57611dfd565b5b50919050565b7f4552433732313a20617070726f76616c20746f2063757272656e74206f776e6560008201527f7200000000000000000000000000000000000000000000000000000000000000602082015250565b6000611eba602183611807565b9150611ec582611e5e565b604082019050919050565b60006020820190508181036000830152611ee981611ead565b9050919050565b7f4552433732313a20617070726f76652063616c6c6572206973206e6f7420746f60008201527f6b656e206f776e6572206f7220617070726f76656420666f7220616c6c000000602082015250565b6000611f4c603d83611807565b9150611f5782611ef0565b604082019050919050565b60006020820190508181036000830152611f7b81611f3f565b9050919050565b7f4e487b7100000000000000000000000000000000000000000000000000000000600052601160045260246000fd5b6000611fbc826118b7565b9150611fc7836118b7565b9250827fffffffffffffffffffffffffffffffffffffffffffffffffffffffffffffffff03821115611ffc57611ffb611f82565b5b828201905092915050565b7f4552433732313a2063616c6c6572206973206e6f7420746f6b656e206f776e6560008201527f72206f7220617070726f76656400000000000000000000000000000000000000602082015250565b6000612063602d83611807565b915061206e82612007565b604082019050919050565b6000602082019050818103600083015261209281612056565b9050919050565b7f4552433732313a20696e76616c696420746f6b656e2049440000000000000000600082015250565b60006120cf601883611807565b91506120da82612099565b602082019050919050565b600060208201905081810360008301526120fe816120c2565b9050919050565b7f4552433732313a2061646472657373207a65726f206973206e6f74206120766160008201527f6c6964206f776e65720000000000000000000000000000000000000000000000602082015250565b6000612161602983611807565b915061216c82612105565b604082019050919050565b6000602082019050818103600083015261219081612154565b9050919050565b7f4552433732313a206d696e7420746f20746865207a65726f2061646472657373600082015250565b60006121cd602083611807565b91506121d882612197565b602082019050919050565b600060208201905081810360008301526121fc816121c0565b9050919050565b7f4552433732313a20746f6b656e20616c7265616479206d696e74656400000000600082015250565b6000612239601c83611807565b915061224482612203565b602082019050919050565b600060208201905081810360008301526122688161222c565b9050919050565b7f4552433732313a207472616e736665722066726f6d20696e636f72726563742060008201527f6f776e6572000000000000000000000000000000000000000000000000000000602082015250565b60006122cb602583611807565b91506122d68261226f565b604082019050919050565b600060208201905081810360008301526122fa816122be565b9050919050565b7f4552433732313a207472616e7366657220746f20746865207a65726f2061646460008201527f7265737300000000000000000000000000000000000000000000000000000000602082015250565b600061235d602483611807565b915061236882612301565b604082019050919050565b6000602082019050818103600083015261238c81612350565b9050919050565b7f4552433732313a20617070726f766520746f2063616c6c657200000000000000600082015250565b60006123c9601983611807565b91506123d482612393565b602082019050919050565b600060208201905081810360008301526123f8816123bc565b9050919050565b7f4552433732313a207472616e7366657220746f206e6f6e20455243373231526560008201527f63656976657220696d706c656d656e7465720000000000000000000000000000602082015250565b600061245b603283611807565b9150612466826123ff565b604082019050919050565b6000602082019050818103600083015261248a8161244e565b9050919050565b600081519050919050565b600082825260208201905092915050565b60006124b882612491565b6124c2818561249c565b93506124d2818560208601611818565b6124db8161184b565b840191505092915050565b60006080820190506124fb600083018761194c565b612508602083018661194c565b6125156040830185611abb565b818103606083015261252781846124ad565b905095945050505050565b6000815190506125418161176d565b92915050565b60006020828403121561255d5761255c611737565b5b600061256b84828501612532565b9150509291505056fea2646970667358221220e982fdd7c6afd7a2b7523142b4705e368319305d5aa094ea8dd865d81dfddf1764736f6c63430008080033",
  "immutableReferences": {},
  "source": "//SPDX-License-Identifier: MIT\npragma solidity 0.8.8;\n\nimport \"@openzeppelin/contracts/token/ERC721/ERC721.sol\";\n\ncontract Nifty is ERC721 {\n    \n    uint256 lastTokenID;\n    mapping(address => uint[]) tokenIDs;\n    mapping(uint => bool) priority;\n\n    string high_priority = \"https://i.imgur.com/l0p3lBa.jpeg\";\n    string low_priority = \"https://i.imgur.com/oWbiR8V.jpeg\";\n\n    constructor() ERC721(\"Nifty\", \"NFT\") {}\n\n    function mint(bool prioritee) external {\n        uint newTokenId = lastTokenID += 1;\n        priority[newTokenId] = prioritee;\n        tokenIDs[msg.sender].push(newTokenId);\n        _mint(msg.sender, newTokenId);\n    }\n\n    function tokenURI(uint tokenId) public view override returns(string memory) {\n        if(priority[tokenId]) {\n            return high_priority;\n        } else {\n            return low_priority;\n        }\n    }\n\n    function userTokenIDs(address hodler) public view returns (uint[] memory) {\n        return(tokenIDs[hodler]);\n    }\n}\n",
  "sourcePath": "/home/gypsum/Coding/DAO/backend/contracts/NiFTy.sol",
  "compiler": {
    "name": "solc",
    "version": "0.8.8+commit.dddeac2f.Emscripten.clang"
  },
  "schemaVersion": "3.4.14",
  "updatedAt": "2023-08-19T15:07:04.437Z",
  "networkType": "ethereum",
  "devdoc": {
    "kind": "dev",
    "methods": {
      "approve(address,uint256)": {
        "details": "See {IERC721-approve}."
      },
      "balanceOf(address)": {
        "details": "See {IERC721-balanceOf}."
      },
      "getApproved(uint256)": {
        "details": "See {IERC721-getApproved}."
      },
      "isApprovedForAll(address,address)": {
        "details": "See {IERC721-isApprovedForAll}."
      },
      "name()": {
        "details": "See {IERC721Metadata-name}."
      },
      "ownerOf(uint256)": {
        "details": "See {IERC721-ownerOf}."
      },
      "safeTransferFrom(address,address,uint256)": {
        "details": "See {IERC721-safeTransferFrom}."
      },
      "safeTransferFrom(address,address,uint256,bytes)": {
        "details": "See {IERC721-safeTransferFrom}."
      },
      "setApprovalForAll(address,bool)": {
        "details": "See {IERC721-setApprovalForAll}."
      },
      "supportsInterface(bytes4)": {
        "details": "See {IERC165-supportsInterface}."
      },
      "symbol()": {
        "details": "See {IERC721Metadata-symbol}."
      },
      "tokenURI(uint256)": {
        "details": "See {IERC721Metadata-tokenURI}."
      },
      "transferFrom(address,address,uint256)": {
        "details": "See {IERC721-transferFrom}."
      }
    },
    "version": 1
  },
  "userdoc": {
    "kind": "user",
    "methods": {},
    "version": 1
  }
}