{
  "contractName": "Nifty",
  "abi": [
    {
      "inputs": [],
      "stateMutability": "nonpayable",
      "type": "constructor"
    },
    {
      "anonymous": false,
      "inputs": [
        {
          "indexed": true,
          "internalType": "address",
          "name": "owner",
          "type": "address"
        },
        {
          "indexed": true,
          "internalType": "address",
          "name": "approved",
          "type": "address"
        },
        {
          "indexed": true,
          "internalType": "uint256",
          "name": "tokenId",
          "type": "uint256"
        }
      ],
      "name": "Approval",
      "type": "event"
    },
    {
      "anonymous": false,
      "inputs": [
        {
          "indexed": true,
          "internalType": "address",
          "name": "owner",
          "type": "address"
        },
        {
          "indexed": true,
          "internalType": "address",
          "name": "operator",
          "type": "address"
        },
        {
          "indexed": false,
          "internalType": "bool",
          "name": "approved",
          "type": "bool"
        }
      ],
      "name": "ApprovalForAll",
      "type": "event"
    },
    {
      "anonymous": false,
      "inputs": [
        {
          "indexed": true,
          "internalType": "address",
          "name": "from",
          "type": "address"
        },
        {
          "indexed": true,
          "internalType": "address",
          "name": "to",
          "type": "address"
        },
        {
          "indexed": true,
          "internalType": "uint256",
          "name": "tokenId",
          "type": "uint256"
        }
      ],
      "name": "Transfer",
      "type": "event"
    },
    {
      "inputs": [
        {
          "internalType": "address",
          "name": "to",
          "type": "address"
        },
        {
          "internalType": "uint256",
          "name": "tokenId",
          "type": "uint256"
        }
      ],
      "name": "approve",
      "outputs": [],
      "stateMutability": "nonpayable",
      "type": "function"
    },
    {
      "inputs": [
        {
          "internalType": "address",
          "name": "owner",
          "type": "address"
        }
      ],
      "name": "balanceOf",
      "outputs": [
        {
          "internalType": "uint256",
          "name": "",
          "type": "uint256"
        }
      ],
      "stateMutability": "view",
      "type": "function",
      "constant": true
    },
    {
      "inputs": [
        {
          "internalType": "uint256",
          "name": "tokenId",
          "type": "uint256"
        }
      ],
      "name": "getApproved",
      "outputs": [
        {
          "internalType": "address",
          "name": "",
          "type": "address"
        }
      ],
      "stateMutability": "view",
      "type": "function",
      "constant": true
    },
    {
      "inputs": [
        {
          "internalType": "address",
          "name": "owner",
          "type": "address"
        },
        {
          "internalType": "address",
          "name": "operator",
          "type": "address"
        }
      ],
      "name": "isApprovedForAll",
      "outputs": [
        {
          "internalType": "bool",
          "name": "",
          "type": "bool"
        }
      ],
      "stateMutability": "view",
      "type": "function",
      "constant": true
    },
    {
      "inputs": [],
      "name": "name",
      "outputs": [
        {
          "internalType": "string",
          "name": "",
          "type": "string"
        }
      ],
      "stateMutability": "view",
      "type": "function",
      "constant": true
    },
    {
      "inputs": [
        {
          "internalType": "uint256",
          "name": "tokenId",
          "type": "uint256"
        }
      ],
      "name": "ownerOf",
      "outputs": [
        {
          "internalType": "address",
          "name": "",
          "type": "address"
        }
      ],
      "stateMutability": "view",
      "type": "function",
      "constant": true
    },
    {
      "inputs": [
        {
          "internalType": "address",
          "name": "from",
          "type": "address"
        },
        {
          "internalType": "address",
          "name": "to",
          "type": "address"
        },
        {
          "internalType": "uint256",
          "name": "tokenId",
          "type": "uint256"
        }
      ],
      "name": "safeTransferFrom",
      "outputs": [],
      "stateMutability": "nonpayable",
      "type": "function"
    },
    {
      "inputs": [
        {
          "internalType": "address",
          "name": "from",
          "type": "address"
        },
        {
          "internalType": "address",
          "name": "to",
          "type": "address"
        },
        {
          "internalType": "uint256",
          "name": "tokenId",
          "type": "uint256"
        },
        {
          "internalType": "bytes",
          "name": "data",
          "type": "bytes"
        }
      ],
      "name": "safeTransferFrom",
      "outputs": [],
      "stateMutability": "nonpayable",
      "type": "function"
    },
    {
      "inputs": [
        {
          "internalType": "address",
          "name": "operator",
          "type": "address"
        },
        {
          "internalType": "bool",
          "name": "approved",
          "type": "bool"
        }
      ],
      "name": "setApprovalForAll",
      "outputs": [],
      "stateMutability": "nonpayable",
      "type": "function"
    },
    {
      "inputs": [
        {
          "internalType": "bytes4",
          "name": "interfaceId",
          "type": "bytes4"
        }
      ],
      "name": "supportsInterface",
      "outputs": [
        {
          "internalType": "bool",
          "name": "",
          "type": "bool"
        }
      ],
      "stateMutability": "view",
      "type": "function",
      "constant": true
    },
    {
      "inputs": [],
      "name": "symbol",
      "outputs": [
        {
          "internalType": "string",
          "name": "",
          "type": "string"
        }
      ],
      "stateMutability": "view",
      "type": "function",
      "constant": true
    },
    {
      "inputs": [
        {
          "internalType": "uint256",
          "name": "tokenId",
          "type": "uint256"
        }
      ],
      "name": "tokenURI",
      "outputs": [
        {
          "internalType": "string",
          "name": "",
          "type": "string"
        }
      ],
      "stateMutability": "view",
      "type": "function",
      "constant": true
    },
    {
      "inputs": [
        {
          "internalType": "address",
          "name": "from",
          "type": "address"
        },
        {
          "internalType": "address",
          "name": "to",
          "type": "address"
        },
        {
          "internalType": "uint256",
          "name": "tokenId",
          "type": "uint256"
        }
      ],
      "name": "transferFrom",
      "outputs": [],
      "stateMutability": "nonpayable",
      "type": "function"
    },
    {
      "inputs": [],
      "name": "mint",
      "outputs": [],
      "stateMutability": "nonpayable",
      "type": "function"
    },
    {
      "inputs": [
        {
          "internalType": "address",
          "name": "hodler",
          "type": "address"
        }
      ],
      "name": "userTokenIDs",
      "outputs": [
        {
          "internalType": "uint256[]",
          "name": "",
          "type": "uint256[]"
        }
      ],
      "stateMutability": "view",
      "type": "function",
      "constant": true
    },
    {
      "inputs": [
        {
          "internalType": "string",
          "name": "_link",
          "type": "string"
        }
      ],
      "name": "updateTokenURI",
      "outputs": [],
      "stateMutability": "nonpayable",
      "type": "function"
    }
  ],
  "bytecode": "0x60806040523480156200001157600080fd5b506040518060400160405280600581526020017f4e696674790000000000000000000000000000000000000000000000000000008152506040518060400160405280600381526020017f4e46540000000000000000000000000000000000000000000000000000000000815250816000908051906020019062000096929190620000b8565b508060019080519060200190620000af929190620000b8565b505050620001cd565b828054620000c69062000197565b90600052602060002090601f016020900481019282620000ea576000855562000136565b82601f106200010557805160ff191683800117855562000136565b8280016001018555821562000136579182015b828111156200013557825182559160200191906001019062000118565b5b50905062000145919062000149565b5090565b5b80821115620001645760008160009055506001016200014a565b5090565b7f4e487b7100000000000000000000000000000000000000000000000000000000600052602260045260246000fd5b60006002820490506001821680620001b057607f821691505b60208210811415620001c757620001c662000168565b5b50919050565b61297480620001dd6000396000f3fe608060405234801561001057600080fd5b50600436106101005760003560e01c806370a0823111610097578063b88d4fde11610066578063b88d4fde14610297578063c87b56dd146102b3578063e985e9c5146102e3578063fbfeeffd1461031357610100565b806370a082311461021157806395d89b411461024157806398cd61531461025f578063a22cb4651461027b57610100565b80631249c58b116100d35780631249c58b1461019f57806323b872dd146101a957806342842e0e146101c55780636352211e146101e157610100565b806301ffc9a71461010557806306fdde0314610135578063081812fc14610153578063095ea7b314610183575b600080fd5b61011f600480360381019061011a9190611a17565b610343565b60405161012c9190611a5f565b60405180910390f35b61013d610425565b60405161014a9190611b13565b60405180910390f35b61016d60048036038101906101689190611b6b565b6104b7565b60405161017a9190611bd9565b60405180910390f35b61019d60048036038101906101989190611c20565b6104fd565b005b6101a7610615565b005b6101c360048036038101906101be9190611c60565b6106a5565b005b6101df60048036038101906101da9190611c60565b610705565b005b6101fb60048036038101906101f69190611b6b565b610725565b6040516102089190611bd9565b60405180910390f35b61022b60048036038101906102269190611cb3565b6107ac565b6040516102389190611cef565b60405180910390f35b610249610864565b6040516102569190611b13565b60405180910390f35b61027960048036038101906102749190611e3f565b6108f6565b005b61029560048036038101906102909190611eb4565b610910565b005b6102b160048036038101906102ac9190611f95565b610926565b005b6102cd60048036038101906102c89190611b6b565b610988565b6040516102da9190611b13565b60405180910390f35b6102fd60048036038101906102f89190612018565b6109f0565b60405161030a9190611a5f565b60405180910390f35b61032d60048036038101906103289190611cb3565b610a84565b60405161033a9190612116565b60405180910390f35b60007f80ac58cd000000000000000000000000000000000000000000000000000000007bffffffffffffffffffffffffffffffffffffffffffffffffffffffff1916827bffffffffffffffffffffffffffffffffffffffffffffffffffffffff1916148061040e57507f5b5e139f000000000000000000000000000000000000000000000000000000007bffffffffffffffffffffffffffffffffffffffffffffffffffffffff1916827bffffffffffffffffffffffffffffffffffffffffffffffffffffffff1916145b8061041e575061041d82610b1b565b5b9050919050565b60606000805461043490612167565b80601f016020809104026020016040519081016040528092919081815260200182805461046090612167565b80156104ad5780601f10610482576101008083540402835291602001916104ad565b820191906000526020600020905b81548152906001019060200180831161049057829003601f168201915b5050505050905090565b60006104c282610b85565b6004600083815260200190815260200160002060009054906101000a900473ffffffffffffffffffffffffffffffffffffffff169050919050565b600061050882610725565b90508073ffffffffffffffffffffffffffffffffffffffff168373ffffffffffffffffffffffffffffffffffffffff161415610579576040517f08c379a00000000000000000000000000000000000000000000000000000000081526004016105709061220b565b60405180910390fd5b8073ffffffffffffffffffffffffffffffffffffffff16610598610bd0565b73ffffffffffffffffffffffffffffffffffffffff1614806105c757506105c6816105c1610bd0565b6109f0565b5b610606576040517f08c379a00000000000000000000000000000000000000000000000000000000081526004016105fd9061229d565b60405180910390fd5b6106108383610bd8565b505050565b600060016006600082825461062a91906122ec565b9250508190559050600860003373ffffffffffffffffffffffffffffffffffffffff1673ffffffffffffffffffffffffffffffffffffffff1681526020019081526020016000208190806001815401808255809150506001900390600052602060002001600090919091909150556106a23382610c91565b50565b6106b66106b0610bd0565b82610eaf565b6106f5576040517f08c379a00000000000000000000000000000000000000000000000000000000081526004016106ec906123b4565b60405180910390fd5b610700838383610f44565b505050565b61072083838360405180602001604052806000815250610926565b505050565b6000806107318361123e565b9050600073ffffffffffffffffffffffffffffffffffffffff168173ffffffffffffffffffffffffffffffffffffffff1614156107a3576040517f08c379a000000000000000000000000000000000000000000000000000000000815260040161079a90612420565b60405180910390fd5b80915050919050565b60008073ffffffffffffffffffffffffffffffffffffffff168273ffffffffffffffffffffffffffffffffffffffff16141561081d576040517f08c379a0000000000000000000000000000000000000000000000000000000008152600401610814906124b2565b60405180910390fd5b600360008373ffffffffffffffffffffffffffffffffffffffff1673ffffffffffffffffffffffffffffffffffffffff168152602001908152602001600020549050919050565b60606001805461087390612167565b80601f016020809104026020016040519081016040528092919081815260200182805461089f90612167565b80156108ec5780601f106108c1576101008083540402835291602001916108ec565b820191906000526020600020905b8154815290600101906020018083116108cf57829003601f168201915b5050505050905090565b806007908051906020019061090c929190611908565b5050565b61092261091b610bd0565b838361127b565b5050565b610937610931610bd0565b83610eaf565b610976576040517f08c379a000000000000000000000000000000000000000000000000000000000815260040161096d906123b4565b60405180910390fd5b610982848484846113e8565b50505050565b606061099382610b85565b600061099d611444565b905060008151116109bd57604051806020016040528060008152506109e8565b806109c7846114d6565b6040516020016109d892919061250e565b6040516020818303038152906040525b915050919050565b6000600560008473ffffffffffffffffffffffffffffffffffffffff1673ffffffffffffffffffffffffffffffffffffffff16815260200190815260200160002060008373ffffffffffffffffffffffffffffffffffffffff1673ffffffffffffffffffffffffffffffffffffffff16815260200190815260200160002060009054906101000a900460ff16905092915050565b6060600860008373ffffffffffffffffffffffffffffffffffffffff1673ffffffffffffffffffffffffffffffffffffffff168152602001908152602001600020805480602002602001604051908101604052809291908181526020018280548015610b0f57602002820191906000526020600020905b815481526020019060010190808311610afb575b50505050509050919050565b60007f01ffc9a7000000000000000000000000000000000000000000000000000000007bffffffffffffffffffffffffffffffffffffffffffffffffffffffff1916827bffffffffffffffffffffffffffffffffffffffffffffffffffffffff1916149050919050565b610b8e816115ae565b610bcd576040517f08c379a0000000000000000000000000000000000000000000000000000000008152600401610bc490612420565b60405180910390fd5b50565b600033905090565b816004600083815260200190815260200160002060006101000a81548173ffffffffffffffffffffffffffffffffffffffff021916908373ffffffffffffffffffffffffffffffffffffffff160217905550808273ffffffffffffffffffffffffffffffffffffffff16610c4b83610725565b73ffffffffffffffffffffffffffffffffffffffff167f8c5be1e5ebec7d5bd14f71427d1e84f3dd0314c0f7b2291e5b200ac8c7c3b92560405160405180910390a45050565b600073ffffffffffffffffffffffffffffffffffffffff168273ffffffffffffffffffffffffffffffffffffffff161415610d01576040517f08c379a0000000000000000000000000000000000000000000000000000000008152600401610cf89061257e565b60405180910390fd5b610d0a816115ae565b15610d4a576040517f08c379a0000000000000000000000000000000000000000000000000000000008152600401610d41906125ea565b60405180910390fd5b610d586000838360016115ef565b610d61816115ae565b15610da1576040517f08c379a0000000000000000000000000000000000000000000000000000000008152600401610d98906125ea565b60405180910390fd5b6001600360008473ffffffffffffffffffffffffffffffffffffffff1673ffffffffffffffffffffffffffffffffffffffff16815260200190815260200160002060008282540192505081905550816002600083815260200190815260200160002060006101000a81548173ffffffffffffffffffffffffffffffffffffffff021916908373ffffffffffffffffffffffffffffffffffffffff160217905550808273ffffffffffffffffffffffffffffffffffffffff16600073ffffffffffffffffffffffffffffffffffffffff167fddf252ad1be2c89b69c2b068fc378daa952ba7f163c4a11628f55a4df523b3ef60405160405180910390a4610eab6000838360016115f5565b5050565b600080610ebb83610725565b90508073ffffffffffffffffffffffffffffffffffffffff168473ffffffffffffffffffffffffffffffffffffffff161480610efd5750610efc81856109f0565b5b80610f3b57508373ffffffffffffffffffffffffffffffffffffffff16610f23846104b7565b73ffffffffffffffffffffffffffffffffffffffff16145b91505092915050565b8273ffffffffffffffffffffffffffffffffffffffff16610f6482610725565b73ffffffffffffffffffffffffffffffffffffffff1614610fba576040517f08c379a0000000000000000000000000000000000000000000000000000000008152600401610fb19061267c565b60405180910390fd5b600073ffffffffffffffffffffffffffffffffffffffff168273ffffffffffffffffffffffffffffffffffffffff16141561102a576040517f08c379a00000000000000000000000000000000000000000000000000000000081526004016110219061270e565b60405180910390fd5b61103783838360016115ef565b8273ffffffffffffffffffffffffffffffffffffffff1661105782610725565b73ffffffffffffffffffffffffffffffffffffffff16146110ad576040517f08c379a00000000000000000000000000000000000000000000000000000000081526004016110a49061267c565b60405180910390fd5b6004600082815260200190815260200160002060006101000a81549073ffffffffffffffffffffffffffffffffffffffff02191690556001600360008573ffffffffffffffffffffffffffffffffffffffff1673ffffffffffffffffffffffffffffffffffffffff168152602001908152602001600020600082825403925050819055506001600360008473ffffffffffffffffffffffffffffffffffffffff1673ffffffffffffffffffffffffffffffffffffffff16815260200190815260200160002060008282540192505081905550816002600083815260200190815260200160002060006101000a81548173ffffffffffffffffffffffffffffffffffffffff021916908373ffffffffffffffffffffffffffffffffffffffff160217905550808273ffffffffffffffffffffffffffffffffffffffff168473ffffffffffffffffffffffffffffffffffffffff167fddf252ad1be2c89b69c2b068fc378daa952ba7f163c4a11628f55a4df523b3ef60405160405180910390a461123983838360016115f5565b505050565b60006002600083815260200190815260200160002060009054906101000a900473ffffffffffffffffffffffffffffffffffffffff169050919050565b8173ffffffffffffffffffffffffffffffffffffffff168373ffffffffffffffffffffffffffffffffffffffff1614156112ea576040517f08c379a00000000000000000000000000000000000000000000000000000000081526004016112e19061277a565b60405180910390fd5b80600560008573ffffffffffffffffffffffffffffffffffffffff1673ffffffffffffffffffffffffffffffffffffffff16815260200190815260200160002060008473ffffffffffffffffffffffffffffffffffffffff1673ffffffffffffffffffffffffffffffffffffffff16815260200190815260200160002060006101000a81548160ff0219169083151502179055508173ffffffffffffffffffffffffffffffffffffffff168373ffffffffffffffffffffffffffffffffffffffff167f17307eab39ab6107e8899845ad3d59bd9653f200f220920489ca2b5937696c31836040516113db9190611a5f565b60405180910390a3505050565b6113f3848484610f44565b6113ff848484846115fb565b61143e576040517f08c379a00000000000000000000000000000000000000000000000000000000081526004016114359061280c565b60405180910390fd5b50505050565b60606007805461145390612167565b80601f016020809104026020016040519081016040528092919081815260200182805461147f90612167565b80156114cc5780601f106114a1576101008083540402835291602001916114cc565b820191906000526020600020905b8154815290600101906020018083116114af57829003601f168201915b5050505050905090565b6060600060016114e584611792565b01905060008167ffffffffffffffff81111561150457611503611d14565b5b6040519080825280601f01601f1916602001820160405280156115365781602001600182028036833780820191505090505b509050600082602001820190505b6001156115a3578080600190039150507f3031323334353637383961626364656600000000000000000000000000000000600a86061a8153600a858161158d5761158c61282c565b5b049450600085141561159e576115a3565b611544565b819350505050919050565b60008073ffffffffffffffffffffffffffffffffffffffff166115d08361123e565b73ffffffffffffffffffffffffffffffffffffffff1614159050919050565b50505050565b50505050565b600061161c8473ffffffffffffffffffffffffffffffffffffffff166118e5565b15611785578373ffffffffffffffffffffffffffffffffffffffff1663150b7a02611645610bd0565b8786866040518563ffffffff1660e01b815260040161166794939291906128b0565b602060405180830381600087803b15801561168157600080fd5b505af19250505080156116b257506040513d601f19601f820116820180604052508101906116af9190612911565b60015b611735573d80600081146116e2576040519150601f19603f3d011682016040523d82523d6000602084013e6116e7565b606091505b5060008151141561172d576040517f08c379a00000000000000000000000000000000000000000000000000000000081526004016117249061280c565b60405180910390fd5b805181602001fd5b63150b7a0260e01b7bffffffffffffffffffffffffffffffffffffffffffffffffffffffff1916817bffffffffffffffffffffffffffffffffffffffffffffffffffffffff19161491505061178a565b600190505b949350505050565b600080600090507a184f03e93ff9f4daa797ed6e38ed64bf6a1f01000000000000000083106117f0577a184f03e93ff9f4daa797ed6e38ed64bf6a1f01000000000000000083816117e6576117e561282c565b5b0492506040810190505b6d04ee2d6d415b85acef8100000000831061182d576d04ee2d6d415b85acef810000000083816118235761182261282c565b5b0492506020810190505b662386f26fc10000831061185c57662386f26fc1000083816118525761185161282c565b5b0492506010810190505b6305f5e1008310611885576305f5e100838161187b5761187a61282c565b5b0492506008810190505b61271083106118aa5761271083816118a05761189f61282c565b5b0492506004810190505b606483106118cd57606483816118c3576118c261282c565b5b0492506002810190505b600a83106118dc576001810190505b80915050919050565b6000808273ffffffffffffffffffffffffffffffffffffffff163b119050919050565b82805461191490612167565b90600052602060002090601f016020900481019282611936576000855561197d565b82601f1061194f57805160ff191683800117855561197d565b8280016001018555821561197d579182015b8281111561197c578251825591602001919060010190611961565b5b50905061198a919061198e565b5090565b5b808211156119a757600081600090555060010161198f565b5090565b6000604051905090565b600080fd5b600080fd5b60007fffffffff0000000000000000000000000000000000000000000000000000000082169050919050565b6119f4816119bf565b81146119ff57600080fd5b50565b600081359050611a11816119eb565b92915050565b600060208284031215611a2d57611a2c6119b5565b5b6000611a3b84828501611a02565b91505092915050565b60008115159050919050565b611a5981611a44565b82525050565b6000602082019050611a746000830184611a50565b92915050565b600081519050919050565b600082825260208201905092915050565b60005b83811015611ab4578082015181840152602081019050611a99565b83811115611ac3576000848401525b50505050565b6000601f19601f8301169050919050565b6000611ae582611a7a565b611aef8185611a85565b9350611aff818560208601611a96565b611b0881611ac9565b840191505092915050565b60006020820190508181036000830152611b2d8184611ada565b905092915050565b6000819050919050565b611b4881611b35565b8114611b5357600080fd5b50565b600081359050611b6581611b3f565b92915050565b600060208284031215611b8157611b806119b5565b5b6000611b8f84828501611b56565b91505092915050565b600073ffffffffffffffffffffffffffffffffffffffff82169050919050565b6000611bc382611b98565b9050919050565b611bd381611bb8565b82525050565b6000602082019050611bee6000830184611bca565b92915050565b611bfd81611bb8565b8114611c0857600080fd5b50565b600081359050611c1a81611bf4565b92915050565b60008060408385031215611c3757611c366119b5565b5b6000611c4585828601611c0b565b9250506020611c5685828601611b56565b9150509250929050565b600080600060608486031215611c7957611c786119b5565b5b6000611c8786828701611c0b565b9350506020611c9886828701611c0b565b9250506040611ca986828701611b56565b9150509250925092565b600060208284031215611cc957611cc86119b5565b5b6000611cd784828501611c0b565b91505092915050565b611ce981611b35565b82525050565b6000602082019050611d046000830184611ce0565b92915050565b600080fd5b600080fd5b7f4e487b7100000000000000000000000000000000000000000000000000000000600052604160045260246000fd5b611d4c82611ac9565b810181811067ffffffffffffffff82111715611d6b57611d6a611d14565b5b80604052505050565b6000611d7e6119ab565b9050611d8a8282611d43565b919050565b600067ffffffffffffffff821115611daa57611da9611d14565b5b611db382611ac9565b9050602081019050919050565b82818337600083830152505050565b6000611de2611ddd84611d8f565b611d74565b905082815260208101848484011115611dfe57611dfd611d0f565b5b611e09848285611dc0565b509392505050565b600082601f830112611e2657611e25611d0a565b5b8135611e36848260208601611dcf565b91505092915050565b600060208284031215611e5557611e546119b5565b5b600082013567ffffffffffffffff811115611e7357611e726119ba565b5b611e7f84828501611e11565b91505092915050565b611e9181611a44565b8114611e9c57600080fd5b50565b600081359050611eae81611e88565b92915050565b60008060408385031215611ecb57611eca6119b5565b5b6000611ed985828601611c0b565b9250506020611eea85828601611e9f565b9150509250929050565b600067ffffffffffffffff821115611f0f57611f0e611d14565b5b611f1882611ac9565b9050602081019050919050565b6000611f38611f3384611ef4565b611d74565b905082815260208101848484011115611f5457611f53611d0f565b5b611f5f848285611dc0565b509392505050565b600082601f830112611f7c57611f7b611d0a565b5b8135611f8c848260208601611f25565b91505092915050565b60008060008060808587031215611faf57611fae6119b5565b5b6000611fbd87828801611c0b565b9450506020611fce87828801611c0b565b9350506040611fdf87828801611b56565b925050606085013567ffffffffffffffff81111561200057611fff6119ba565b5b61200c87828801611f67565b91505092959194509250565b6000806040838503121561202f5761202e6119b5565b5b600061203d85828601611c0b565b925050602061204e85828601611c0b565b9150509250929050565b600081519050919050565b600082825260208201905092915050565b6000819050602082019050919050565b61208d81611b35565b82525050565b600061209f8383612084565b60208301905092915050565b6000602082019050919050565b60006120c382612058565b6120cd8185612063565b93506120d883612074565b8060005b838110156121095781516120f08882612093565b97506120fb836120ab565b9250506001810190506120dc565b5085935050505092915050565b6000602082019050818103600083015261213081846120b8565b905092915050565b7f4e487b7100000000000000000000000000000000000000000000000000000000600052602260045260246000fd5b6000600282049050600182168061217f57607f821691505b6020821081141561219357612192612138565b5b50919050565b7f4552433732313a20617070726f76616c20746f2063757272656e74206f776e6560008201527f7200000000000000000000000000000000000000000000000000000000000000602082015250565b60006121f5602183611a85565b915061220082612199565b604082019050919050565b60006020820190508181036000830152612224816121e8565b9050919050565b7f4552433732313a20617070726f76652063616c6c6572206973206e6f7420746f60008201527f6b656e206f776e6572206f7220617070726f76656420666f7220616c6c000000602082015250565b6000612287603d83611a85565b91506122928261222b565b604082019050919050565b600060208201905081810360008301526122b68161227a565b9050919050565b7f4e487b7100000000000000000000000000000000000000000000000000000000600052601160045260246000fd5b60006122f782611b35565b915061230283611b35565b9250827fffffffffffffffffffffffffffffffffffffffffffffffffffffffffffffffff03821115612337576123366122bd565b5b828201905092915050565b7f4552433732313a2063616c6c6572206973206e6f7420746f6b656e206f776e6560008201527f72206f7220617070726f76656400000000000000000000000000000000000000602082015250565b600061239e602d83611a85565b91506123a982612342565b604082019050919050565b600060208201905081810360008301526123cd81612391565b9050919050565b7f4552433732313a20696e76616c696420746f6b656e2049440000000000000000600082015250565b600061240a601883611a85565b9150612415826123d4565b602082019050919050565b60006020820190508181036000830152612439816123fd565b9050919050565b7f4552433732313a2061646472657373207a65726f206973206e6f74206120766160008201527f6c6964206f776e65720000000000000000000000000000000000000000000000602082015250565b600061249c602983611a85565b91506124a782612440565b604082019050919050565b600060208201905081810360008301526124cb8161248f565b9050919050565b600081905092915050565b60006124e882611a7a565b6124f281856124d2565b9350612502818560208601611a96565b80840191505092915050565b600061251a82856124dd565b915061252682846124dd565b91508190509392505050565b7f4552433732313a206d696e7420746f20746865207a65726f2061646472657373600082015250565b6000612568602083611a85565b915061257382612532565b602082019050919050565b600060208201905081810360008301526125978161255b565b9050919050565b7f4552433732313a20746f6b656e20616c7265616479206d696e74656400000000600082015250565b60006125d4601c83611a85565b91506125df8261259e565b602082019050919050565b60006020820190508181036000830152612603816125c7565b9050919050565b7f4552433732313a207472616e736665722066726f6d20696e636f72726563742060008201527f6f776e6572000000000000000000000000000000000000000000000000000000602082015250565b6000612666602583611a85565b91506126718261260a565b604082019050919050565b6000602082019050818103600083015261269581612659565b9050919050565b7f4552433732313a207472616e7366657220746f20746865207a65726f2061646460008201527f7265737300000000000000000000000000000000000000000000000000000000602082015250565b60006126f8602483611a85565b91506127038261269c565b604082019050919050565b60006020820190508181036000830152612727816126eb565b9050919050565b7f4552433732313a20617070726f766520746f2063616c6c657200000000000000600082015250565b6000612764601983611a85565b915061276f8261272e565b602082019050919050565b6000602082019050818103600083015261279381612757565b9050919050565b7f4552433732313a207472616e7366657220746f206e6f6e20455243373231526560008201527f63656976657220696d706c656d656e7465720000000000000000000000000000602082015250565b60006127f6603283611a85565b91506128018261279a565b604082019050919050565b60006020820190508181036000830152612825816127e9565b9050919050565b7f4e487b7100000000000000000000000000000000000000000000000000000000600052601260045260246000fd5b600081519050919050565b600082825260208201905092915050565b60006128828261285b565b61288c8185612866565b935061289c818560208601611a96565b6128a581611ac9565b840191505092915050565b60006080820190506128c56000830187611bca565b6128d26020830186611bca565b6128df6040830185611ce0565b81810360608301526128f18184612877565b905095945050505050565b60008151905061290b816119eb565b92915050565b600060208284031215612927576129266119b5565b5b6000612935848285016128fc565b9150509291505056fea2646970667358221220d097374f5e5cd67ad90d0985a07ed063e5f29cef1d5f92c8a5e3fdf9f11e8de064736f6c63430008080033",
  "immutableReferences": {},
  "source": "//SPDX-License-Identifier: MIT\npragma solidity 0.8.8;\n\nimport \"@openzeppelin/contracts/token/ERC721/ERC721.sol\";\n\ncontract Nifty is ERC721 {\n    \n    uint256 lastTokenID;\n    string uri;\n    mapping(address => uint[]) tokenIDs;\n\n    constructor() ERC721(\"Nifty\", \"NFT\") {}\n\n    function mint() external {\n        uint newTokenId = lastTokenID += 1;\n        tokenIDs[msg.sender].push(newTokenId);\n        _mint(msg.sender, newTokenId);\n    }\n\n    function _baseURI() internal override view returns (string memory) {\n        return uri;\n    }\n\n    function userTokenIDs(address hodler) public view returns (uint[] memory) {\n        return(tokenIDs[hodler]);\n    }\n\n    function updateTokenURI(string memory _link) public {\n        uri = _link;\n    }\n\n}",
  "sourcePath": "/home/gypsum/Coding/DAO/backend/contracts/NiFTy.sol",
  "compiler": {
    "name": "solc",
    "version": "0.8.8+commit.dddeac2f.Emscripten.clang"
  },
  "schemaVersion": "3.4.14",
  "updatedAt": "2023-08-16T14:03:16.073Z",
  "networkType": "ethereum",
  "devdoc": {
    "kind": "dev",
    "methods": {
      "approve(address,uint256)": {
        "details": "See {IERC721-approve}."
      },
      "balanceOf(address)": {
        "details": "See {IERC721-balanceOf}."
      },
      "getApproved(uint256)": {
        "details": "See {IERC721-getApproved}."
      },
      "isApprovedForAll(address,address)": {
        "details": "See {IERC721-isApprovedForAll}."
      },
      "name()": {
        "details": "See {IERC721Metadata-name}."
      },
      "ownerOf(uint256)": {
        "details": "See {IERC721-ownerOf}."
      },
      "safeTransferFrom(address,address,uint256)": {
        "details": "See {IERC721-safeTransferFrom}."
      },
      "safeTransferFrom(address,address,uint256,bytes)": {
        "details": "See {IERC721-safeTransferFrom}."
      },
      "setApprovalForAll(address,bool)": {
        "details": "See {IERC721-setApprovalForAll}."
      },
      "supportsInterface(bytes4)": {
        "details": "See {IERC165-supportsInterface}."
      },
      "symbol()": {
        "details": "See {IERC721Metadata-symbol}."
      },
      "tokenURI(uint256)": {
        "details": "See {IERC721Metadata-tokenURI}."
      },
      "transferFrom(address,address,uint256)": {
        "details": "See {IERC721-transferFrom}."
      }
    },
    "version": 1
  },
  "userdoc": {
    "kind": "user",
    "methods": {},
    "version": 1
  }
}